:020000040040BA
:10000000082C4020CD074000C9074000C907400028
:10001000C9074000C9074000C907400000000000B0
:10002000000000000000000000000000A50B4000E0
:10003000C907400000000000450C4000AD0C400026
:10004000C9074000C9074000C9074000C907400070
:10005000C9074000C9074000C9074000C907400060
:10006000C907400000000000A5044000B90440009A
:10007000CD044000C9074000C9074000C90740003F
:10008000E1044000F5044000C9074000C9074000F2
:10009000C9074000C9074000C9074000C907400020
:1000A000C9074000C9074000C9074000C907400010
:1000B000C9074000C9074000C9074000C907400000
:1000C000C9074000C9074000C9074000C9074000F0
:1000D00000000000C907400000000000C907400000
:1000E000C9074000C9074000C9074000C9074000D0
:1000F000C9074000C9074000C9074000C9074000C0
:10010000C9074000C9074000C9074000C9074000AF
:10011000C9074000000000000000000000000000CF
:10012000C9074000C9074000C9074000C90740008F
:10013000C907400000000000C9074000C90740008F
:1001400010B5054C237833B9044B13B10448AFF311
:1001500000800123237010BDAC0840200000000087
:10016000D8984000084B10B51BB108490848AFF3B8
:1001700000800848036803B910BD074B002BFBD073
:10018000BDE81040184700BF00000000B008402044
:10019000D8984000D89840000000000010B51048E2
:1001A000104B98473E2100200F4B98470F4CA0471B
:1001B0000028FCD00E4B98470E4A0F4B9A620F4C0A
:1001C000A0470028FCD002200D4B984700200D4B83
:1001D00098470D4B98470248024B984710BD00BF07
:1001E00000A3E111B9094000AD054000010640003F
:1001F00011064000013F182000060E402106400075
:100200000905400045054000A908400090B92DE9C6
:10021000F0410C469046002A0FDD8F18084E094D1C
:10022000306821462B6898470134A742F8D14046F0
:10023000BDE8F0814FF0FF3070470020BDE8F0814D
:10024000BC0B4020B40B40200138022815D82DE902
:10025000F0410E4614469AB10D46DFF838800C4F37
:10026000D8F8000015F8011B3B68984700280ADB06
:10027000A81B013CF4D1BDE8F0814FF0FF3070477E
:100280000020BDE8F0814FF0FF30BDE8F08100BFF5
:10029000B80B4020BC0B4020F8B54FF40042574B40
:1002A0005A60BFF34F8FBFF36F8F554B0022C3F8D7
:1002B00050225A6942F400325A61BFF34F8FBFF3A4
:1002C0006F8FD3F88060C6F34E3506F0070704370A
:1002D000C6F3C906B6FA86F000F01F00BFF34F8FD1
:1002E0001C46334605FA07F103FA00F20A43C4F844
:1002F0006022013BB3F1FF3FF6D1013DB5F1FF3F75
:10030000EFD1BFF34F8F3E4B5A6942F480325A61AE
:10031000BFF34F8FBFF36F8F3A4A3B495160A1F54E
:1003200080715160BFF34F8FBFF36F8FD3F890226E
:1003300022F00102C3F89022D3F8942222F00102A5
:10034000C3F89422BFF34F8FBFF36F8F0A202F4C57
:10035000A0470B20A0470C20A0471020A047112049
:10036000A0472B4B4FF480721A61C3F8A0201A6388
:10037000A3F580634FF400625A61C3F8A0205A6667
:10038000C3F890205A651A62C3F88420196F21F4CB
:1003900000611967596F21F400615967C3F8C020E3
:1003A000C3F8D420C3F8B0204FF400121A66C3F883
:1003B00090205A655A62C3F88020196F21F4001109
:1003C0001967596F21F4001159675A60114AD2F820
:1003D000143143F01003C2F814310F4B10221A6687
:1003E000C3F890205A655A62C3F88020196F1143F0
:1003F0001967596F114359675A60F8BD50180E407C
:1004000000ED00E0000C0E400C08005A31064000E0
:1004100000120E400080084000100E40016370473B
:100420004163704710B44164019C0CB1416600E027
:1004300001660BB1016500E041650AB1016300E0AE
:100440004163016101605DF8044B7047C06C704707
:10045000806C70472DE9F041044688460E4B984762
:10046000054620460D4B9847054013D00C4C04F12F
:1004700060062368434508D16168294205D0E368D6
:1004800040469847636825EA0305B44202D0103419
:10049000002DEED1BDE8F0814D0440005104400034
:1004A000C808402008B50A210148024B984708BDFA
:1004B000000E0E405504400008B50B210148024BC8
:1004C000984708BD00100E405504400008B50C21A7
:1004D0000148024B984708BD00120E4055044000E9
:1004E00008B510210148024B984708BD00140E4082
:1004F0005504400008B511210148024B984708BD3A
:1005000000160E4055044000032807D0042808D0E8
:1005100002280CBF4FF48072002204E04FF44072B6
:1005200001E04FF4007206490B6B23F44073134350
:100530000B630A46936E13F0080FFBD0704700BFA1
:1005400000060E40184A136B23F070031843106323
:10055000936E13F0080F03D009E0013B03D11EE0B6
:100560004FF4805310498A6E12F0080FF5D00E4AEE
:10057000136B23F0030343F002031363906E10F038
:10058000080004D000207047013B03D109E04FF47C
:10059000805305498A6E12F0080FF5D0704701208C
:1005A00070470120704700BF00060E4038B10E4969
:1005B0000B6A0E4A1A400E4B13430B6270470A48EF
:1005C000036A090289B20B4A1A400B4B13431943C1
:1005D00001620246936E13F0010FFBD0024A116ACA
:1005E000064B0B431362704700060E40FCFFC8FE2B
:1005F00002003701FCFFC8FF01003700000037018F
:10060000024B986E00F48030704700BF00060E4029
:100610004FF00052014B9A62704700BF00060E4037
:10062000024B986E00F00200704700BF00060E40BB
:100630003F281ED81F280CD8114B9A6901238340EC
:10064000934318D0012303FA00F00D4B18610020EA
:10065000704720380A4BD3F8082101238340934385
:100660000BD0012303FA00F0054BC3F80001002072
:10067000704701207047002070470020704700BF7E
:1006800000060E40436913F0020F02D0C161002042
:1006900070470120704700BF436913F0010F03D07A
:1006A00083690B70002070470120704710B40C0163
:1006B00094420FD91AE0416841F4002141601204CC
:1006C00002F4E0221A43026200201CE001201AE03A
:1006D000012018E0630803EBC202B2FBF4F2D30876
:1006E0005C1E4FF6FE718C42E9D9EFE7C9004B085A
:1006F00003EBC202B2FBF1F2D3085C1E4FF6FE71AF
:100700008C42E5D8D7E75DF8044B7047084BC0F83A
:10071000E430002343604362836288230360242320
:1007200003604FF4807303604FF40023036070474D
:100730000041535570B505460C4616460F4B984779
:1007400000220F4B1A609CB13246216828460D4B9F
:100750009847024670B96168A36819432369194331
:10076000E3680B4306490B6069680B436B6002E06A
:10077000012200E00122104670BD00BF0D074000BD
:1007800038094020AD06400040230360704700BF99
:1007900010230360704700BF436913F0020F04D0B9
:1007A000C1F30801C161002070470120704700BFFC
:1007B000436913F0010F05D08369C3F308030B608D
:1007C0000020704701207047FEE700BF00B583B0EE
:1007D000274B284A9A4203D0274B254A9A4204D3F2
:1007E000264B274A9A420FD31AE02149254B5B1A20
:1007F00023F0030304331F4A134452F8040B41F857
:10080000040B9A42F9D1EBE71F4B204AD21A22F08F
:1008100003021A44043B002143F8041B9342FBD11A
:100820001B4A1C4B23F07F039360EFF31083B3FA52
:1008300083F35B09019372B6BFF35F8F0022164BFF
:100840001A700199154A136843F470031360BFF3DB
:100850004F8FBFF36F8F29B101220F4B1A70BFF377
:100860005F8F62B60E4B98470E4B9847FEE700BF6E
:1008700000004020D8984000AC084020040C4020E4
:10088000AC084020AB084020B0084020070C4020B6
:1008900000ED00E0000040000000402088ED00E096
:1008A000BD2D4000B92B40003C4B1B6B03F00303F4
:1008B000012B0FD013B1022B29D057E0384B5B69C5
:1008C00013F0800F14BF4FF400424FF4FA42354B3F
:1008D0001A604BE0314B1B6A13F0807F03D0324A21
:1008E000304B1A6042E0314A2E4B1A602B4B1B6A88
:1008F00003F07003102B02D0202B04D036E02C4ADA
:10090000284B1A6032E0284A264B1A602EE0234B0F
:100910001B6A13F0807F03D0234A224B1A6012E037
:10092000224A204B1A601D4B1B6A03F07003102BE8
:1009300002D0202B04D006E01D4A1A4B1A6002E0B8
:10094000194A184B1A60154B1B6B03F00303022B5B
:100950000CD1124A936A926A1248C3F30A4103689F
:1009600001FB0333D2B2B3FBF2F303600B4B1B6BFF
:1009700003F07003702B07D10A4A13680D49A1FBDD
:1009800003135B0813607047044B1B6B0549C3F3EB
:1009900002120B68D3400B60704700BF00060E4088
:1009A00010180E4004004020001BB70000093D0055
:1009B00000127A00ABAAAAAA124B984204D84FF0B0
:1009C0008062114B1A607047104B984203D8104A4E
:1009D0000D4B1A6070470F4B984203D80E4A0A4BD2
:1009E0001A6070470D4B984203D80D4A064B1A60A7
:1009F00070470C4B984294BF4FF004220A4A024BB6
:100A00001A607047FF2C3101000C0E40FF59620242
:100A100000010004FF86930300020004FFB3C40436
:100A200000030004FFE0F50500050004094B1B6806
:100A300013B9094A074B1A60064B1B681A18074975
:100A4000914204DB1046034A1060184670474FF08D
:100A5000FF3070473C094020082E4020FCFF452015
:100A60004FF0FF30704700BF4FF400534B60002041
:100A7000704700BF012070470020704700F1080355
:100A800043604FF0FF328260C36003610023036064
:100A9000704700BF00230361704700BF43684B608D
:100AA0009A688A609A6851609960086103680133A6
:100AB0000360704730B40D68B5F1FF3F01D10269A2
:100AC00007E000F1080200E01A4653681C68A542DE
:100AD000FAD253684B6099608A605160086103687C
:100AE0000133036030BC70470369426881689160DC
:100AF0008268416851605A68904201D182685A60A8
:100B00000022026118680138186070470D4B1B689D
:100B1000B3F1FF3F0AD04FF0800372B683F3118820
:100B2000BFF36F8FBFF34F8F62B6FEE74FF08003C6
:100B300072B683F31188BFF36F8FBFF34F8F62B626
:100B4000FEE700BF0800402006480068006880F308
:100B5000088862B661B6BFF34F8FBFF36F8F00DFB7
:100B600000BF000008ED00E0DFF80C00016841F470
:100B7000700101607047000088ED00E04FF0807365
:100B800040F8043C40F8081C054B40F80C3C40F889
:100B9000202C6FF0020340F8243C4438704700BF1B
:100BA0000D0B4000064B19680868B0E8F04F80F361
:100BB0000988BFF36F8F4FF0000080F311887047F2
:100BC000EC094020704700BF4FF0800372B683F3FA
:100BD0001188BFF36F8FBFF34F8F62B60B4A136854
:100BE00001331360012B0FD1094B1B6813F0FF0F6A
:100BF0000AD04FF0800372B683F31188BFF36F8F72
:100C0000BFF34F8F62B6FEE7704700BF0800402079
:100C100004ED00E00A4B1B6853B94FF0800372B635
:100C200083F31188BFF36F8FBFF34F8F62B6FEE778
:100C3000013B034A13600BB983F31188704700BF6F
:100C400008004020EFF30980BFF36F8F154B1A683F
:100C50001EF0100F08BF20ED108A20E9F04F106041
:100C60004DF8043D4FF0800072B680F31188BFF359
:100C70004F8FBFF36F8F62B601F022F94FF0000083
:100C800080F3118808BC19680868B0E8F04F1EF0BE
:100C9000100F08BFB0EC108A80F30988BFF36F8F84
:100CA000704700BFEC094020704700BF08B5EFF364
:100CB00011834FF0800272B682F31188BFF36F8FF9
:100CC000BFF34F8F62B6054B984718B14FF0805273
:100CD000034B1A60002383F3118808BD951A400066
:100CE00004ED00E0034A044B1A600722043B1A603B
:100CF000704700BFBF27090014E000E000B583B0D3
:100D0000254B1A78D2B20192FF221A701B78DBB2FF
:100D10008DF803309DF8033003F080031F4A1370F1
:100D200007221F4B1A609DF8033013F0800F10D07C
:100D3000062200E00A469DF803305B00DBB28DF826
:100D400003309DF80330511E13F0800FF2D1144B85
:100D50001A60134A13681B0203F4E0631360019BDB
:100D6000DBB20D4A13700F4B1A6842F460021A602E
:100D70001A6842F060421A600B4B984700220B4BF6
:100D80001A600B4B98470B4A136843F040431360BB
:100D9000094B9847094B984700E400E04009402080
:100DA0004409402020ED00E0E50C40000800402010
:100DB000690B400034EF00E0490B40000D0B400090
:100DC000EFF305830F2B11D9124A9B5CDBB2124A59
:100DD00012789A420AD94FF0800372B683F31188D1
:100DE000BFF36F8FBFF34F8F62B6FEE70B4B1B68ED
:100DF00003F4E0630A4A126893420AD94FF0800371
:100E000072B683F31188BFF36F8FBFF34F8F62B653
:100E1000FEE77047F0E300E0400940200CED00E001
:100E20004409402010B50446064B98472046064B1F
:100E300098470446054B98470CB9054B9847204600
:100E400010BD00BF6D1A4000352E4000DD1B400074
:100E5000A12B400048B110B50446044B98472046EA
:100E6000034B9847034B984710BD70476D1A4000DD
:100E7000452E4000DD1B400038B504461546026C87
:100E800042B90368002B2BD140681B4B98470023C5
:100E900063602CE06DB98068184B9847A268236C9A
:100EA0001344A360626893421CD32368A3600020AC
:100EB0001DE0C068114B9847236C5B42E2681A44FE
:100EC000E26021688A4202D262681344E360022D24
:100ED0000AD1A36B53B1A36B013BA363002006E0CF
:100EE000002004E0002002E0002000E00020A36BCE
:100EF0000133A36338BD00BFC1224000C5334000A9
:100F000030B583B00190446D54B94FF0800372B690
:100F100083F31188BFF36F8FBFF34F8F62B6FEE785
:100F2000A26BE36B9A420AD34FF0800372B683F34D
:100F30001188BFF36F8FBFF34F8F62B6FEE7A26BCE
:100F4000934217D90A4601A920460C4B98470546FB
:100F5000A36CB3F1FF3F09D1636A63B104F12400CC
:100F6000074B9847002818BF012504E0A36C013304
:100F7000A36400E00025284603B030BD790E400090
:100F800091204000026C72B110B50346C46814444D
:100F9000C4604068844201D31868D8600846D968A4
:100FA000014B984710BD7047C5334000F8B5044663
:100FB000204B9847A36C002B18DD1F4D1F4F204E70
:100FC000636D33B100212046A847012808D1B847F6
:100FD00006E0636A53B104F12400B04700B1B8479A
:100FE000A36C013BA364A36C002BE9DC4FF0FF333F
:100FF000A364144B98470F4B9847636C002B13DD89
:1010000023691BB910E0236923B90DE004F1100630
:101010000B4D0A4F3046A84700B1B847636C013BFF
:101020006364636C002BEEDC4FF0FF336364054BAD
:101030009847F8BDC90B4000010F4000ED2140006A
:1010400091204000150C400038B550B94FF0800396
:1010500072B683F31188BFF36F8FBFF34F8F62B601
:10106000FEE704460D46184B98472268216CE36B57
:1010700003FB01F3D01860600020A063A2605B1A3C
:101080001344E3604FF0FF336364A36485B92369BD
:10109000ABB104F110000D4B984701280FD14FF070
:1010A00080520B4B1A60BFF34F8FBFF36F8F06E078
:1010B00004F11000074DA84704F12400A847064B8F
:1010C0009847012038BD00BFC90B40009120400067
:1010D00004ED00E07D0A4000150C4000F8B550B961
:1010E0004FF0800372B683F31188BFF36F8FBFF3A5
:1010F0004F8F62B6FEE7064617460D46C1B101FBAB
:1011000000F05930144B9847044610B905E02460AC
:1011100015E000F15803036011E04FF0800372B650
:1011200083F31188BFF36F8FBFF34F8F62B6FEE773
:101130005820094B984704460028E8D1EDE7E663BC
:10114000256401212046054B984784F85070002300
:1011500063652046F8BD00BF250E400049104000E1
:101160002DE9F04F85B0019250B94FF0800372B66F
:1011700083F31188BFF36F8FBFF34F8F62B6FEE723
:10118000044661B9026C52B14FF0800372B683F32A
:101190001188BFF36F8FBFF34F8F62B6FEE7022B4C
:1011A0000DD1E26B012A0AD04FF0800372B683F3AF
:1011B0001188BFF36F8FBFF34F8F62B6FEE71D46F6
:1011C0000091514B984760B9019B63B14FF0800388
:1011D00072B683F31188BFF36F8FBFF34F8F62B680
:1011E000FEE7002700E00027484EDFF84C91DFF8CB
:1011F0002881B047A26BE36B9A4201D3022D33D111
:101200002A4600992046424B9847636D73B12946A0
:101210002046404B9847012822D14FF080523E4B48
:101220001A60BFF34F8FBFF36F8F19E0636A73B11A
:1012300004F12400394B9847012811D14FF0805216
:10124000354B1A60BFF34F8FBFF36F8F08E038B193
:101250004FF08052304B1A60BFF34F8FBFF36F8F48
:101260002F4B984701204BE0019B1BB92C4B984713
:10127000002045E017B902A8C8470127284B984726
:10128000284B9847B047636CB3F1FF3F01D100236F
:101290006364A36CB3F1FF3F01D10023A364204B2F
:1012A000984701A902A8204B984718BBB047D4F82B
:1012B00038B0D4F83CA01A4B9847D34514D10199C3
:1012C00004F11000194B98472046194B9847194BC9
:1012D000984700288DD14FF08053C8F80030BFF3F5
:1012E0004F8FBFF36F8F84E72046114B9847114B08
:1012F00098477EE720460E4B98470E4B98470020B4
:1013000005B0BDE8F08F00BFF9214000C90B4000D7
:10131000790E4000010F400004ED00E091204000F4
:10132000150C40006D1A4000592140008D1F4000EF
:10133000AD0F4000DD1B40002921400050B94FF0A7
:10134000800372B683F31188BFF36F8FBFF34F8FA3
:1013500062B6FEE72DE9F041044661B9006C50B178
:101360004FF0800372B683F31188BFF36F8FBFF322
:101370004F8F62B6FEE7022B0DD1E06B01280AD039
:101380004FF0800372B683F31188BFF36F8FBFF302
:101390004F8F62B6FEE71E4615468846214B98479A
:1013A000EFF311874FF0800372B683F31188BFF318
:1013B0006F8FBFF34F8F62B6A26BE36B9A4201D37C
:1013C000022E23D1324641462046174B9847A36C44
:1013D000B3F1FF3F15D1636D43B131462046134B46
:1013E0009847ADB1012813D1286016E0636A8BB12C
:1013F00004F124000E4B984775B168B101202860B4
:101400000BE0A36C0133A364012006E0002004E09C
:10141000012002E0012000E0012087F31188BDE8EF
:10142000F08100BFC10D4000790E4000010F400067
:10143000912040002DE9F04F85B0019250B94FF056
:10144000800372B683F31188BFF36F8FBFF34F8FA2
:1014500062B6FEE7044661B9026C52B14FF08003F8
:1014600072B683F31188BFF36F8FBFF34F8F62B6ED
:10147000FEE798468B46524B984760B9019B63B193
:101480004FF0800372B683F31188BFF36F8FBFF301
:101490004F8F62B6FEE7002600E00026494DDFF8D8
:1014A00054A1DFF83091A847A36B002B34D0E56836
:1014B00059462046444B9847B8F1000F18D1A36B0A
:1014C000013BA363236813B9404B984760602369CD
:1014D000F3B104F110003E4B9847012818D14FF0AA
:1014E00080523C4B1A60BFF34F8FBFF36F8F0FE0FA
:1014F000E560636A63B104F12400354B984738B165
:101500004FF08052334B1A60BFF34F8FBFF36F8F92
:10151000314B984701204FE0019B1BB92E4B984758
:10152000002049E016B902A8D04701262A4B984767
:101530002A4B9847A847636CB3F1FF3F01D10023C2
:101540006364A36CB3F1FF3F01D10023A364224B7A
:10155000984701A902A8224B984738BBA847A76B18
:101560001D4B9847E7B923682BB9A84760681D4B06
:101570009847194B9847019904F124001A4B984752
:1015800020461A4B98471A4B984700288BD14FF0AA
:101590008053C9F80030BFF34F8FBFF36F8F82E7DE
:1015A0002046124B9847124B98477CE720460F4B3A
:1015B00098470F4B9847002005B0BDE8F08F00BF5B
:1015C000F9214000C90B4000850F400081244000F4
:1015D0009120400004ED00E0150C40006D1A400021
:1015E00059214000192240008D1F4000AD0F4000DE
:1015F000DD1B40002921400010B40B4B1B682BB1B0
:101600000123094C54F8332042B900E00023064A74
:1016100042F8331002EBC303586002E00133082B99
:10162000F0D15DF8044B7047C00B402070B5044604
:101630000D4616460D4B9847636CB3F1FF3F01D141
:1016400000236364A36CB3F1FF3F01D10023A364C3
:10165000074B9847A36B2BB93246294604F1240067
:10166000044B98472046044B984770BDC90B400077
:10167000150C400011204000AD0F40000B68002BFE
:1016800054D02DE9F04F4B685B684B6001F1080EB8
:10169000734501D15B684B604B68D3F80CC000F117
:1016A0001C0600204FF0020807464B685B684B6041
:1016B0009E4501D1CB684B604B68D3F80C90B24685
:1016C00046F81C9C09F1340346F8183CD9F8403020
:1016D00046F8143C06F8102CD9F82C3046F80C3C8F
:1016E000032A04D1D9F828300BB106F8108CD9F8A8
:1016F00048304AF8083C4AF8047CD9F830B09BF8E6
:101700000030A52B08D10BF10103CBEB030513F837
:10171000014BA52CF9D000E03D46AD08AAF80050D9
:1017200001302036CC45C0D1BDE8F08F0020704795
:10173000084B1B681B6823B94FF0FF32064B1A6039
:101740007047044B1B68DB68DB685A68024B1A6001
:10175000704700BF4C0940200C0A402010B50F4BC9
:101760001B6858600E4B1B68984207D20D4B1868D7
:101770000A4B196804310C4B984710BD04460B4BBB
:101780001868064B19680431074B9847084B1B68CB
:101790009C4201D2064B1C6010BD00BFEC094020EA
:1017A000080A40206C094020B50A40004C0940203E
:1017B0000C0A40202DE9F04F83B00C9FDDF834A0D7
:1017C0000E9D50B94FF0800372B683F31188BFF3BA
:1017D0006F8FBFF34F8F62B6FEE7042F0AD94FF029
:1017E000800372B683F31188BFF36F8FBFF34F8FFF
:1017F00062B6FEE70190009390460E4635B9900020
:101800005F4B98470546002800F0B48058205C4B99
:1018100098470446A0B105634FEA8802A5212846EF
:10182000584B98476FF040454544236B03EB8503C5
:1018300023F00705337884F83430337823B90FE088
:101840002846514B984795E0334604F13402093657
:1018500013F8011F02F8011F197809B19E42F7D150
:101860004FF0000884F83D803E46042F28BF042630
:10187000E662A664C4F84C8004F104094846DFF827
:1018800054B1D84704F11800D8472461C6F10506C1
:10189000A6616462C4F8508084F85480009A01996B
:1018A00028463A4B98472060BAF1000F01D0CAF899
:1018B0000040374B9847374A136801331360364B63
:1018C0001B680BBB344B1C601368012B26D1334DB6
:1018D00005F16408324E2846B04714354545FAD123
:1018E000DFF8F48040462E4DA8472E4E3046A847DC
:1018F0002D48A8472D48A8472D48A8472D4BC3F889
:1019000000802D4B1E6009E02C4B1B6833B9224B25
:101910001B68DB6A9F4201D31F4B1C60284A136877
:10192000013313602364E06A26490B680122824078
:1019300013430B6000EB80004946184B03EB80001B
:10194000214B9847214B98471C4B1B6873B1124B96
:101950001B68DB6A9F420BD94FF080521C4B1A6008
:10196000BFF34F8FBFF36F8F012005E0012003E02D
:10197000012001E04FF0FF3003B0BDE8F08F00BF61
:10198000250E4000F9344000550E40007D0B40000C
:10199000C90B4000140A4020EC0940207409402083
:1019A0007D0A4000180A4020F0094020D809402054
:1019B0002C0A40204C0940206C094020500940204E
:1019C000100A4020400A40209D0A4000150C4000AB
:1019D00004ED00E0950A40005809402010B584B09D
:1019E000002303930293019300938222174918481E
:1019F000184CA04701281AD1174B9847012816D137
:101A00004FF0800372B683F31188BFF36F8FBFF37B
:101A10004F8F62B64FF0FF32104B1A600122104B0D
:101A20001A6000220F4B1A600F4B98470BE050B919
:101A30004FF0800372B683F31188BFF36F8FBFF34B
:101A40004F8F62B6FEE704B010BD00BFEC954000BA
:101A5000851D4000B5174000692540000C0A402054
:101A600050094020080A4020FD0C4000024A13683B
:101A700001331360704700BF040A4020014B18680F
:101A8000704700BF080A4020014B1868704700BF2C
:101A9000140A40202DE9F047414B1B68002B6FD101
:101AA000404B1A6801321A601E68D6B93E4B1B685B
:101AB0001B6853B14FF0800372B683F31188BFF3F4
:101AC0006F8FBFF34F8F62B6FEE7374A1168374B0F
:101AD000186810601960364A136801331360354B7B
:101AE0009847354B1B689E4201D2002437E0002402
:101AF000DFF8B490DFF8E080304FD9F800301B6891
:101B000023B94FF0FF322C4B1A6028E0D9F800308F
:101B1000DB68DD686B689E4202D2274A13601EE0D4
:101B200005F1040A5046C047AB6A13B105F118002D
:101B3000C047E86A3B680122824013433B6000EBE8
:101B4000800051461E4B03EB80001E4B98471E4BF6
:101B50001B68EA6ADB6A9A4228BF0124CDE71A4B68
:101B60001B68DB6A03EB8303154A52F82330022B10
:101B700028BF0124154B1B684BB9154B984706E04D
:101B8000124A136801331360114B98470024114B1C
:101B90001B68002B0CBF20460120BDE8F08700BF6A
:101BA000040A4020080A40204C0940206C094020CB
:101BB00048094020311740000C0A4020400A4020CC
:101BC000740940209D0A4000EC0940207009402023
:101BD0009D2B4000440A4020E90A40002DE9F843CB
:101BE000364B1B6853B94FF0800372B683F31188EC
:101BF000BFF36F8FBFF34F8F62B6FEE7304B98474E
:101C00002E4B1A68013A1A601B68002B4DD12D4BE0
:101C10001B680BBB00244BE0FB68DC6804F1180078
:101C2000B04704F104084046B047E06A2B6801223F
:101C3000824013432B6000EB8000414609EB80009B
:101C4000214B9847214B1B68E26ADB6A9A4208D312
:101C500001221F4B1A6004E01E4F1F4E1F4DDFF87C
:101C600090903B68002BD7D11D4B1B687BB11C4B60
:101C70001B6863B11B4E164D194CB04708B10123C8
:101C80002B602368013B23602368002BF5D1104BA8
:101C90001B68012B0BD14FF08052134B1A60BFF31E
:101CA0004F8FBFF36F8F012402E0002400E0002477
:101CB0000E4B98472046BDE8F88300BF040A402039
:101CC000C90B4000140A40209D0A4000EC09402046
:101CD000440A4020F0094020E90A4000400A402020
:101CE00070094020951A400004ED00E0150C4000FA
:101CF0007409402010B5002829D00446184B1B68F1
:101D000053B14FF0800372B683F31188BFF36F8F26
:101D1000BFF34F8F62B6FEE7124B9847124B1B681A
:101D20001C44124B18680430114B984748B90F4BAC
:101D30001A6810490B68D06A0122824023EA020324
:101D40000B6020460C4B98470C4B984738B94FF026
:101D500080520B4B1A60BFF34F8FBFF36F8F10BDD4
:101D6000040A40206D1A4000080A4020EC09402077
:101D7000E90A4000400A40205D174000DD1B40009A
:101D800004ED00E080B5184D184FDFF88080184E44
:101D900019E0C0473C68B047ACB1164B9847FB68A8
:101DA000DC68201D144B9847144A1368013B1360EC
:101DB0002B68013B2B60124B9847206BDFF850904B
:101DC000C8472046C8472B68002BE2D10D4B1B6843
:101DD000012BDCD94FF080520B4B1A60BFF34F8FB1
:101DE000BFF36F8FD1E700BF54094020D8094020CE
:101DF000DD1B4000C90B4000E90A4000140A4020E6
:101E0000150C40007409402004ED00E06D1A4000FC
:101E1000550E40002DE9F04706460C4617461F4B6D
:101E200098471F4B1B68A34231D81E4B03F1500546
:101E3000A3F1140800244FF0010ADFF87090524615
:101E4000294606EB4410C8470444143D4545F6D1E5
:101E5000154B1968022206EB4410144DA8470444A0
:101E6000134B1968022206EB4410A84704440422CD
:101E7000104906EB4410A847044403220E4906EB20
:101E80004410A84704441FB100233B6000E0002435
:101E90000A4B98472046BDE8F08700BF6D1A400006
:101EA000140A4020740940204C0940207D1640004F
:101EB0006C094020D80940202C0A4020DD1B40003E
:101EC0002C4B1B681BB101222B4B1A60704710B5BD
:101ED0000022294B1A60294B1B681B6B1A68B2F150
:101EE000A53F0BD15A68B2F1A53F07D19A68B2F16C
:101EF000A53F03D1DB68B3F1A53F05D01F4B1868A0
:101F0000196834311E4B98471E4B1B68B3FA83F394
:101F1000DBB2C3F11F0303EB83011B4A52F82120FC
:101F200052B94FF0800372B683F31188BFF36F8FFD
:101F3000BFF34F8F62B6FEE7134A9900C81802EB51
:101F4000800044686468446002460832944206D1C6
:101F5000606803EB83010C4A02EB8102506003EBE3
:101F60008303094A02EB83035B68DA68034B1A6058
:101F700010BD00BF040A4020440A4020EC09402064
:101F8000852B4000400A40207409402038B550B9E4
:101F90004FF0800372B683F31188BFF36F8FBFF3E6
:101FA0004F8F62B6FEE70C46114D29681831114B70
:101FB000984728680430104B984740B92A680F4961
:101FC0000B68D06A0122824023EA02030B60B4F15D
:101FD000FF3F06D1064B196804310948094B984761
:101FE00038BD094B18682044084B984738BD00BFDE
:101FF000EC094020B50A4000E90A4000400A4020B0
:102000002C0A40209D0A4000080A40205D1740002D
:1020100050B94FF0800372B683F31188BFF36F8F0E
:10202000BFF34F8F62B6FEE770B515460C46114EF2
:1020300031681831104B9847306804300F4B98477F
:1020400040B932680E490B68D06A0122824023EA07
:1020500002030B60012D06D1064B196804310948B3
:10206000054B984770BD084B18682044074B9847AC
:1020700070BD00BFEC0940209D0A4000E90A400005
:10208000400A40202C0A4020080A40205D174000EA
:1020900038B5C368DC6854B94FF0800372B683F377
:1020A0001188BFF36F8FBFF34F8F62B6FEE704F165
:1020B00018052846144B9847144B1B689BB9251DDF
:1020C0002846114B9847E06A11490B68012282406B
:1020D00013430B6000EB800029460E4B03EB80009E
:1020E0000D4B984703E029460C480B4B98470C4B87
:1020F0001B68E26ADB6A9A4203D90120094B186027
:1021000038BD002038BD00BFE90A4000040A402065
:10211000400A4020740940209D0A4000F0094020F8
:10212000EC094020440A402050B94FF0800372B6B9
:1021300083F31188BFF36F8FBFF34F8F62B6FEE753
:10214000034A12680260034A12684260704700BF87
:1021500048094020080A402038B550B94FF08003A4
:1021600072B683F31188BFF36F8FBFF34F8F62B6E0
:10217000FEE7044651B94FF0800372B683F311882D
:10218000BFF36F8FBFF34F8F62B6FEE70D46124B62
:102190009847124B19682B68B3F1FF3F13D0104AD0
:1021A00012682068904202D0626891420DD2626843
:1021B000881A83420BD9521A13442B602046094BCC
:1021C0009847002404E0002402E0012400E00124F8
:1021D000054B9847204638BDC90B4000080A4020EF
:1021E0004809402029214000150C40000122014BE4
:1021F0001A607047440A4020054B1B6833B1054BF9
:102200001B68002B0CBF0220002070470120704784
:1022100050094020040A4020002845D038B5034624
:10222000C26A22490968C96A8A423CD28169002986
:1022300005DB1E490968C96AC1F10501816102EB2C
:1022400082021B4901EB82025969914227D11C4647
:102250001D1D2846174B984770B9E36A03EB8301AD
:10226000134A52F821203AB913480268012101FAB1
:1022700003F322EA030303600C4B1B68D86AE06295
:102280000D490A680123834013430B6000EB800073
:102290002946074B03EB8000084B984738BD034A9B
:1022A0001268D26ADA6238BD704700BFEC0940207C
:1022B00074094020E90A4000400A40209D0A40007D
:1022C00000284ED038B50346284A126890420AD0FA
:1022D0004FF0800372B683F31188BFF36F8FBFF3A3
:1022E0004F8F62B6FEE7C26C52B94FF0800372B6F0
:1022F00083F31188BFF36F8FBFF34F8F62B6FEE792
:10230000013AC264C06A996C88422CD05ABB1C4600
:102310001D1D2846164B984768B9E16A01EB8102FA
:10232000144B53F8223033B91348036801228A4012
:1023300023EA02030360A06CE062C0F10503A3611D
:102340000D4A1368012404FA00F10B43136000EBFB
:1023500080002946074B03EB8000084B9847204636
:1023600038BD00207047002038BD00BFEC09402078
:10237000E90A400074094020400A40209D0A4000BC
:102380002DE9F04784B0044600230370344B1A68EB
:10239000039218684001334B984700285CD00546EB
:1023A00003990022304B9847039000230293029A2E
:1023B000039B9A424DD24FF00008DFF8C0902B4E9D
:1023C000029B05EB43131B7B013B032B09D8DFE882
:1023D00003F00A020406422706E0532704E04427DC
:1023E00002E0474600E05227029B05EB4313596881
:1023F0002046C8472046B047082808D8204404F1A2
:102400000902202300F8013B9042FBD1092004EB94
:10241000000A04F80080029B029A029905EB43131C
:102420001B6905EB41118968019105EB4212928B02
:1024300000923A460E4950460E4CA0475046B047CF
:102440000AEB0004029B01330293029A039B9A4217
:10245000B6D32846084B984704B0BDE8F08700BFC4
:10246000140A4020250E4000151E4000413840004F
:10247000F495400021374000550E40006D37400074
:10248000054B1B6823B1044B1A68D36C0133D3642A
:10249000014B1868704700BFEC09402008B5416047
:1024A000006191420AD8D21A83699A4211D2011D61
:1024B0000A4B18680A4B9847002008BD9A4201D27F
:1024C000994208D2011D074B1868054B9847002018
:1024D00008BD012008BD012008BD00BF7C0A4020C6
:1024E000B50A4000480A402070B5144B9847144B79
:1024F0001B6803BB134D2846134EB047134C2046B0
:10250000B047134B1D60134B1C60002210210520A7
:10251000114B98470A4B186050B94FF0800372B6C0
:1025200083F31188BFF36F8FBFF34F8F62B6FEE75F
:102530000A490B4B98470B4B984770BDC90B40009D
:10254000780A40204C0A40207D0A4000600A402062
:10255000480A40207C0A4020DD10400004964000DC
:10256000F9154000150C400010B584B00F4B98478A
:102570000F4B1B6863B10023039302930193042262
:1025800000924FF482720B490B480C4CA04750B993
:102590004FF0800372B683F31188BFF36F8FBFF3E0
:1025A0004F8F62B6FEE704B010BD00BFE9244000C3
:1025B000780A40200C964000ED264000B5174000F8
:1025C00050B94FF0800372B683F31188BFF36F8F59
:1025D000BFF34F8F62B6FEE730B585B015460446AF
:1025E0000F4A1068C0B11A4600910195029405295E
:1025F0000DDC0C4B984702284FF000030CBF089AE3
:102600001A46694606480068074CA04705E00023C3
:102610006946064CA04700E0002005B030BD00BF71
:10262000780A4020F9214000611140003D1340002C
:102630002DE9F04782B08046254B98470746254B49
:102640001B6898423BD22BE0DB68D3F800A0DC6823
:1026500004F104094846B047636A20469847E36995
:10266000012B1FD1A36953449A4506D263602461AC
:1026700049462868184B984714E0002100910B4602
:1026800052462046154CA04760B94FF0800372B601
:1026900083F31188BFF36F8FBFF34F8F62B6FEE7EE
:1026A0000F4D104E2B681A68002ACDD10E4A1068C3
:1026B0000B49086013600123C8F8003002E00023D2
:1026C000C8F80030034B1F60384602B0BDE8F08701
:1026D0007D1A4000740A4020B50A4000C125400020
:1026E000480A4020E90A40007C0A40202DE9F043D6
:1026F00089B0684CDFF8CC81674D684B1B681A685D
:10270000002A00F0B580DB681E68654B984704A876
:10271000644B98470746049B002B44D1B04230D30A
:10272000614B98475D4B1B68DB68D3F80C9009F14F
:1027300004005E4B9847D9F81C30012B1CD1D9F806
:10274000181033463A4631444846594FB847012895
:1027500012D1002100910B4632464846554EB047F3
:1027600050B94FF0800372B683F31188BFF36F8FB7
:10277000BFF34F8F62B6FEE7D9F82430484698473A
:102780006DE00022F11B20684B4B9847464B984761
:10279000002864D14FF08053C8F80030BFF34F8F4A
:1027A000BFF36F8F5BE0404B984758E0049B002BD2
:1027B00006DA07990698059B9847049B002B4FDB88
:1027C000069E73690BB1301DB84703A8354B984777
:1027D000049B092B44D8DFE803F0050505432A3F95
:1027E0000505432A059FB1693B46024639443046F8
:1027F0002F4FB847012832D1736A30469847F369A2
:10280000012B2CD1B269002100910B46059802449E
:102810003046284EB04710BB4FF0800372B683F3AA
:102820001188BFF36F8FBFF34F8F62B6FEE7059934
:10283000B16151B94FF0800372B683F31188BFF3D1
:102840006F8FBFF34F8F62B6FEE703460246014427
:102850003046174EB04702E03046184B9847134FAA
:1028600000231A4604A92068A84700289ED144E7FF
:102870000B4B984704A80B4B98470746049B002B2B
:1028800091D10F4B1B681A68B2FA82F252090026E6
:1028900078E700BF780A402035144000480A4020FD
:1028A0006D1A400031264000DD1B4000E90A40005F
:1028B0009D244000C12540002D164000550E4000CB
:1028C0007C0A402004ED00E008B5074C4FF4807608
:1028D000064DE36B13F4807F01D0666300E026634E
:1028E0004FF47A70A847F4E700120E40F51C400040
:1028F00080B5094E4FF40065084F29463046B84769
:102900004FF47A70064CA04729463046054B98474D
:102910004FF47A70A047F0E700140E401D04400009
:10292000F51C40002104400080B5094E4FF0806541
:10293000084F29463046B8474FF47A70064CA047F6
:1029400029463046054B98474FF47A70A047F0E788
:1029500000140E401D044000F51C400021044000FE
:1029600080B5094E4FF40025084F29463046B84738
:102970004FF47A70064CA04729463046054B9847DD
:102980004FF47A70A047F0E700120E401D0440009B
:10299000F51C40002104400080B5094F094E0A4D46
:1029A000B84701463046A847084C2046084B984790
:1029B0002046A8474FF47A70064B9847F0E700BFCF
:1029C000891A4000149640000D2E4000800A4020D5
:1029D00081234000F51C4000F0B583B005460C464D
:1029E00000230193294B984207D11F46284E2146C8
:1029F0003846B0470028FAD115E0264B984207D157
:102A00001F46234E21463846B0470028FAD115E02C
:102A1000214B984207D11F461D4E21463846B047EC
:102A20000028FAD117E01D4B9D4207D11F46184ED2
:102A300021463846B0470028FAD119E0184B9D428C
:102A400009D11E46174D01A93046A8470028FAD1E2
:102A5000019B237018E0144B9D4209D11E46114D75
:102A600001A93046A8470028FAD1019B23700BE04A
:102A70000E4B9D4208D11E460A4D01A93046A8477B
:102A80000028FAD1019B237003B0F0BD00080E406E
:102A900099064000000A0E40001A0E40001C0E402D
:102AA00000400240B10740000080024000C00240E8
:102AB00070B50C462A4B984208D11E46294D214636
:102AC0003046A8470028FAD1012070BD264B984215
:102AD00008D11E46234D21463046A8470028FAD18A
:102AE000012070BD214B984208D11E461D4D214644
:102AF0003046A8470028FAD1012070BD1C4B9842EF
:102B000008D11E46174D21463046A8470028FAD165
:102B1000012070BD174B984208D11E46164D214624
:102B20003046A8470028FAD1012070BD134B9842C7
:102B300008D11E46104D21463046A8470028FAD13C
:102B4000012070BD0E4B984208D11E460A4D214609
:102B50003046A8470028FAD1012070BD002070BD82
:102B600000080E4085064000000A0E40001A0E4084
:102B7000001C0E40004002409907400000800240C7
:102B800000C0024008B50A4601460248024B984779
:102B9000FEE700BF249640000D2E4000704700BFA6
:102BA0004FF0800372B683F31188BFF36F8FBFF3CA
:102BB0004F8F62B6FEE700BF2DE9F0418AB0584B57
:102BC0009847584B9847584E584B1E60584A594B97
:102BD0001A60594A594B1A604FF4E1330493C023E9
:102BE00005934FF40068CDF81880002407940894EA
:102BF0000E20534DA847534A04A93046524B9847DC
:102C00003046524B98473046514B9847514F3B689E
:102C100021469868504EB0473B6821465868B047F7
:102C20003B6821469868B0470C20A847009423468B
:102C300022464FF400214948494EB0471020A8478A
:102C4000484F0094234622464FF080613846B047F3
:102C50001020A84700942346224641463846B047F4
:102C60004148424DA84742494248A847424A434941
:102C70004348A847039402940194009423464FF4D8
:102C8000007240494048414CA047012801D04048CB
:102C9000A847002303930293019300934FF480729B
:102CA0003C493D48394CA047012802D03B482F4BB6
:102CB0009847002303930293019300934FF480728B
:102CC00037493848314CA047012802D03348274BB8
:102CD0009847002303930293019300934FF480726B
:102CE00031493248294CA047012802D02B481F4BBC
:102CF0009847002303930293019300934FF480724B
:102D00002B492C48214CA047012802D02348174BBF
:102D10009847294B984700200AB0BDE8F08100BFD2
:102D20009D0140009902400000800240BC0B402001
:102D3000B12A4000B80B4020D9294000B40B4020F4
:102D40003106400080D1F008350740008907400077
:102D50009107400038044020C135400000120E4069
:102D60002504400000140E403C9640000D2E40000B
:102D700058964000649640006C964000789640005B
:102D8000849640009C96400099294000B517400069
:102D9000A4964000C4964000C9284000C896400050
:102DA000EC96400061294000F4964000292940003B
:102DB000FC964000F1284000DD19400070B50F4E30
:102DC0000F4D761BB61018BF002405D0013455F8FE
:102DD000043B9847A642F9D10A4E0B4D761B06F0EC
:102DE00065FDB61018BF002406D0013455F8043B29
:102DF0009847A642F9D170BD70BD00BFB898400099
:102E0000B8984000C0984000B89840000FB400B592
:102E1000074983B004AB086853F8042B8168019319
:102E200002F006F903B05DF804EB04B0704700BF90
:102E300038044020024B0146186800F00BB800BF70
:102E400038044020024B0146186804F05BBA00BF0A
:102E5000380440202DE9F04F01F10B05162D83B009
:102E6000064640F29F8035F0070500F1BF80A94279
:102E700000F2BC8000F08EFBB5F5FC7FC0F09C82B8
:102E80006B0A00F0BA80042B00F28381A80900F1DC
:102E9000390E4FEA4E033830C44F07EB8303A3F1DA
:102EA00008015C68A14207D1ACE0002A80F2AC8046
:102EB000E468A14200F0A680636823F003035A1B74
:102EC0000F2AF2DDB9493C6901F1080E744500F0A2
:102ED000B381636823F003035A1B0F2A00F399811F
:102EE000002AC1F814E0C1F810E080F29E80B3F52A
:102EF000007F80F06781DB0803F1010C01229B1049
:102F000002FA03F34A6851F83C80C4F8088001EBE8
:102F1000CC091A43A9F10803E3604A6041F83C4038
:102F2000C8F80C40831001249C40944200F28A802F
:102F3000144206D120F003006400144200F10400A2
:102F4000FAD007EBC009CC468046DCF80C108C4563
:102F500007D173E1002A80F28181C9688C4500F0B5
:102F60006D814B6823F003035A1B0F2AF2DD0C46D8
:102F7000D1F80CC054F8088F4B1945F001054D608D
:102F800042F00101C8F80CC03046CCF808807B61E3
:102F90003B61C3F80CE0C3F808E059609A5000F0B8
:102FA000FBFA1FE0102921D800F0F4FA10250623BF
:102FB00002207E4F07EB8303A3F108025C68944272
:102FC00000F045816368E168A56823F003032344AA
:102FD00030465A68E96042F001028D605A6000F0A4
:102FE000DBFA0834204603B0BDE8F08F00240C2340
:102FF0002046336003B0BDE8F08F80234FF0400ED1
:103000003F2049E770465DE72344E1685A68A568B8
:1030100042F00102E96030468D605A6000F0BCFA6F
:103020000834204603B0BDE8F08F234430465A6888
:1030300042F001025A6000F0AFFA0834204603B0B3
:10304000BDE8F08FBC68636823F00308A84504D38B
:10305000C5EB08030F2B00F38C80554BDFF8609114
:103060001A68D9F8003001332A4404EB080A00F04A
:10307000608102F580520F3222F47F6222F00F024B
:1030800011463046019200F089FAB0F1FF3F8346C5
:10309000019A00F05881824500F2FC80454B196886
:1030A000DA451144196000F05381D9F80000DFF8C7
:1030B00010E101301BBFCAEB0B0A5144CEF800B03F
:1030C00019601BF0070100F01781C1F10800C1F57C
:1030D0008051834408315A44C2F30B02C2EB010908
:1030E00049463046019300F059FA431C019B00F019
:1030F0003F81CBEB00024A4442F001021968C7F855
:1031000008B04944BC42CBF804201960DFF8A49011
:1031100016D0B8F10F0F40F2FD806268A8F10C03E1
:1031200023F00703E01802F001024FF0050E1A43E6
:103130000F2B6260C0F804E0C0F808E000F21C81C8
:103140001D4BBC681A68914288BF19601B4B1A68F6
:103150009142626888BF196022F003029542A2EB97
:10316000050301D80F2B04DC304600F015FA0024CB
:1031700038E7621943F0010345F001056560304608
:10318000BA60536000F008FA0834204603B0BDE886
:10319000F08F142B71D9542B00F2A480280B00F16E
:1031A0006F0E4FEA4E036E3076E600BF3C044020BF
:1031B000880B40208C0B4020840B4020800B40204B
:1031C000480840205A0A042A5ED9142A00F2B38023
:1031D00002F15C0149005B3207EB810C57F82110CA
:1031E000DFF8DC81ACF1080C8C4500F088804A687F
:1031F00022F00302934202D289688C45F7D1D1F8BC
:103200000CC07A68C4F80CC0A160CCF80840CC604F
:1032100088E6631942F0010745F001056560304614
:103220004B610B61C3F80CE0C3F808E05F609A5093
:10323000083400F0B1F9D5E64A6873E608F10108F0
:1032400018F0030F0CF1080C7FF47FAE30E0DC685F
:10325000A34208BF02303FF435AEB3E60B440C4640
:103260005A68C96854F8085F42F001025A60304653
:10327000E9608D6000F090F9B4E603F15C0E03F1B3
:103280005B004FEA4E0307E69A0902F13901490053
:103290003832A1E7BC424A4B3FF400AF9C686268F9
:1032A00022F003025AE759F80839994540F0828024
:1032B00010F0030F00F1FF30F5D17B6823EA04031F
:1032C0007B6064009C423FF6BDAE002C3FF4BAAE7A
:1032D0001C4240467FF435AE64001C4200F10400FD
:1032E000FAD02EE6B3F5AA7F18D8E80B00F1780ED5
:1032F0004FEA4E037730CFE54FF48051EBE60121E2
:10330000D8F80430921001FA02F21A43C8F80420E7
:10331000614677E70123CBF8043025E740F25452A9
:10332000934220D8A80C00F17D0E4FEA4E037C306A
:10333000B2E51032A4E6542A26D81A0B02F16F0126
:1033400049006E3248E7BC68626822F0030205E774
:10335000CAF30B0000287FF4A8AE4244BB6842F0D9
:1033600001025A60ECE6FE234FF07F0E7E2093E5CB
:1033700001224FF00009C1E604F10801304603F0D4
:10338000C1FFD9F80010DBE6B2F5AA7F05D8DA0B49
:1033900002F17801490077321EE740F254518A4227
:1033A00005D89A0C02F17D0149007C3214E7FE2118
:1033B0007E2211E77B6884E7E808431C5B00F8E5A0
:1033C0003C044020844641EA000313F003036DD11E
:1033D000403A41D351F8043B40F8043B51F8043BD8
:1033E00040F8043B51F8043B40F8043B51F8043BDF
:1033F00040F8043B51F8043B40F8043B51F8043BCF
:1034000040F8043B51F8043B40F8043B51F8043BBE
:1034100040F8043B51F8043B40F8043B51F8043BAE
:1034200040F8043B51F8043B40F8043B51F8043B9E
:1034300040F8043B51F8043B40F8043B51F8043B8E
:1034400040F8043B51F8043B40F8043B51F8043B7E
:1034500040F8043B403ABDD2303211D351F8043B1E
:1034600040F8043B51F8043B40F8043B51F8043B5E
:1034700040F8043B51F8043B40F8043B103AEDD2CD
:103480000C3205D351F8043B40F8043B043AF9D21E
:10349000043208D0D2071CBF11F8013B00F8013BF1
:1034A00001D30B8803806046704700BF082A13D3FE
:1034B0008B078DD010F003038AD0C3F10403D21A16
:1034C000DB071CBF11F8013B00F8013B80D331F84A
:1034D000023B20F8023B7BE7043AD9D3013A11F8CA
:1034E000013B00F8013BF9D20B7803704B78437035
:1034F0008B7883706046704770B4840746D0541E42
:10350000002A41D0CDB2034602E0621EE4B3144665
:1035100003F8015B9A07F8D1032C2ED9CDB245EA06
:1035200005250F2C45EA054519D903F11002264659
:10353000103E0F2E42F8105C42F80C5C42F8085C1A
:1035400042F8045C02F11002F2D8A4F1100222F059
:103550000F0204F00F041032032C13440DD91E4641
:103560002246043A032A46F8045BFAD8221F22F0C6
:1035700003020432134404F003042CB1C9B21C4406
:1035800003F8011BA342FBD170BC704714460346ED
:10359000C2E700BF704700BF704700BF38B5074C97
:1035A0000023054608462360FDF740FA431C00D07F
:1035B00038BD2368002BFBD02B6038BD000C4020A9
:1035C00000290CBF022200224FF4806300F000B8F3
:1035D0002DE9F043514C256883B004460F469046D0
:1035E0001E4615B1AB6B002B79D0B8F1020F04D099
:1035F000B8F1010F7FD8002E7DDB2146284603F06D
:1036000023FD216B41B104F14003994202D02846C9
:1036100003F078FE00232363B4F90C300022A2618A
:1036200062601A0654D423F44A6323F00303B8F10A
:10363000020FA38139D001AB6A462146284604F027
:1036400003F9A3891843A08126B327B3AB6B002BE2
:103650004DD0009BB4F90C0027609E421CBF40F483
:103660000060A081B8F1010F08BF40F0010083B2F3
:1036700008BFA08103F0080080B22761666118B31B
:1036800013F001002FD000207642A661A06003B0A5
:10369000BDE8F083009E3046FFF7CCFB074668B3D9
:1036A000A38943F08003A381D0E7002004F1430203
:1036B00043F0020300250121A381A560226022615D
:1036C000616103B0BDE8F083A06003B0BDE8F083A2
:1036D0002169284603F016FEB4F90C30A3E728460A
:1036E00003F046FD81E7A66003B0BDE8F0832846FD
:1036F00003F03EFDADE74FF0FF30E2E7DDF800906C
:10370000B14506D04846FFF795FB074608B14E463F
:10371000C6E7B4F90C304FF0FF30C7E7380440205B
:103720000EB4F0B59CB021AB0F4953F8042B0193B4
:1037300005466FF00044086802954FF402774FF693
:10374000FF7602A90695ADF8147004940794ADF8BD
:10375000166000F0E3F8029B00221A701CB0BDE86E
:10376000F04003B0704700BF3804402080EA0102F7
:10377000844612F0030F4FD111F0030F32D14DF8F0
:10378000044D11F0040F51F8043B0BD0A3F10132AA
:103790009A4312F0803F04BF4CF8043B51F8043BBD
:1037A00016D100BF51F8044BA3F101329A4312F035
:1037B000803FA4F101320BD14CF8043BA24312F03C
:1037C000803F04BF51F8043B4CF8044BEAD0234639
:1037D0000CF8013B13F0FF0F4FEA3323F8D15DF8EB
:1037E000044B704711F0010F06D011F8012B0CF8B3
:1037F000012B002A08BF704711F0020FBFD031F82B
:10380000022B12F0FF0F16BF2CF8022B8CF80020B1
:1038100012F47F4FB3D1704711F8012B0CF8012B34
:10382000002AF9D1704700BF00000000000000002E
:103830000000000000000000000000000000000088
:1038400090F800F06DE9024520F007016FF0000CE0
:1038500010F0070491F820F040F049804FF0000488
:103860006FF00700D1E9002391F840F000F1080063
:1038700082FA4CF2A4FA8CF283FA4CF3A2FA8CF39B
:103880004BBBD1E9022382FA4CF200F10800A4FA02
:103890008CF283FA4CF3A2FA8CF3E3B9D1E9042356
:1038A00082FA4CF200F10800A4FA8CF283FA4CF38D
:1038B000A2FA8CF37BB9D1E9062301F1200182FA47
:1038C0004CF200F10800A4FA8CF283FA4CF3A2FA4D
:1038D0008CF3002BC6D0002A04BF04301A4612BA5B
:1038E000B2FA82F2FDE8024500EBD2007047D1E95E
:1038F000002304F00305C4F100004FEAC50514F0ED
:10390000040F91F840F00CFA05F562EA05021CBFBD
:1039100063EA050362464FF00004A9E72DE9F04F82
:10392000C1B00C46099115460E930A9003F088FF2A
:10393000036817931846FFF783FFA38916901E06A6
:1039400003D52369002B01F0198100231A46129335
:103950002593249319930B93DFF864A4149230AB4E
:10396000239399461592A84698F800304446EBB147
:10397000252B02D11AE0252B03D014F8013F002B90
:10398000F9D1C8EB04058DB1249B259AC9F80080B4
:1039900001332A44072BC9F804502592249300F3DD
:1039A000A68009F108090B9B2B440B932378002B6D
:1039B00000F0A68000231A468DF86F3019460C934C
:1039C00007934FF0FF3B637804F101085D4608F16F
:1039D0000108A3F12000582800F22584DFE810F048
:1039E00088032304230490032304230423042304CF
:1039F000230423049703A50323045D00E2002304AA
:103A0000FE0005010501050105010501050105018E
:103A100005010501230423042304230423042304B0
:103A200023042304230423041501810223048102B7
:103A30002304230423042304C60223042304CD0205
:103A400023042304230423042304F702230423046C
:103A5000250323042304230423042304230423042D
:103A60002304230423046603790381028102810273
:103A70008103790323042304D1032304DB03A3007C
:103A80006400EE032304F5032304AA0323042304A0
:103A9000BC030C980E9340420C90079B43F0040328
:103AA000079398F8003092E70E98AB46002104681F
:103AB0008DF86F10071D0798302378228B458DF8FD
:103AC00070304FF000058DF8712040F00203C0F215
:103AD000C78320F0800343F00203079354EA0503F1
:103AE0000E9700F093830F461192B348CEE223AABB
:103AF00009990A9804F012FD48B90DF1C00952E77E
:103B0000259B23B10A98099923AA04F007FD099B74
:103B10009B8913F0400F0B9B18BF4FF0FF331846E3
:103B200041B0BDE8F08F1193AB46002A41F02382EB
:103B3000079A12F0200300F02E820E9F073727F01D
:103B40000703002703F10801BB450E91D3E90045A7
:103B50008DF86F70C0F2528722F08003079354EA09
:103B6000050300F0758330AEE20842EA4572E908C9
:103B700004F007030D461446303354EA050206F8F4
:103B8000013DF1D1079AD10740F18480302B00F03C
:103B900081803022731E06F8012C30AAD21A0D92B1
:103BA0001E467AE098F800302A2B08F1010401F053
:103BB000B181A3F13000092898BF002501F264818A
:103BC00014F8013B05EB850500EB4505A3F130003A
:103BD0000928F5D945EAE575A046FAE6079B43F0C2
:103BE0008003079398F80030F1E6A3F1300000233A
:103BF0001C4618F8013B04EB840400EB4404A3F1D9
:103C000030000928F5D90C94E3E61193AB46002A5D
:103C100041F0C981079B43F010030793079B980667
:103C200040F130850E9F073727F00707D7E90023BB
:103C300007F108010E9114461D46002A73F1000396
:103C4000C0F25B85BBF1000F9DF86F70C0F2388544
:103C5000079B23F08003079354EA050300F0DB8100
:103C6000002D08BF0A2CC0F0DB8130AE204629466B
:103C70000A22002305F02EFB303206F8012D2046E3
:103C8000294600230A2205F025FB04460D4654EA86
:103C90000503EBD130AB9B1B0D930D9B5B45B8BF70
:103CA0005B4608930023139317B1089B01330893D5
:103CB000079B13F002030F9302D0089B0233089373
:103CC000079B13F08403109340F0D7820C9B089A53
:103CD0009D1A002D40F3D182102D2599249A374F3B
:103CE00027DD189648461024B946099E2F460A9D9E
:103CF00004E0103F102F00F1080016DD01322F4BB9
:103D000024921031072A259180E81800F1DD23AABA
:103D10003146284604F002FC00287FF4F8AE103F3C
:103D2000102F2599249A30A8E8DC189E3D464F466E
:103D3000814601326C18072A25942492C9F8007034
:103D4000C9F8045000F328849DF86F7009F1080940
:103D500077B1249B013301340DF16F010122072B50
:103D60002594249389E8060000F3A08309F108094B
:103D70000F9B6BB1249B013302341CA90222072B39
:103D80002594249389E8060000F39C8309F108092F
:103D9000109B802B00F0D5820D9BC3EB0B07002FEF
:103DA00039DD074A249B0F92102F28DD22464FF061
:103DB000100B0A9D099C0AE0409740006097400064
:103DC0000C974000103F102F09F1080916DD013350
:103DD0001032072B2592249389E8000CF2DD23AAE8
:103DE0002146284604F09AFB00287FF490AE103F4D
:103DF000102F259A249B0DF1C009E8DC14460133ED
:103E00000F9A24933C44072B259489E8840000F3FF
:103E1000418309F10809079BDA0500F13082249BF0
:103E20000D99C9F8006001330C44072B2594C9F89B
:103E30000410249300F3188309F10809079B59071C
:103E40003FD50C9B089A9D1A002D3ADD102D249B1E
:103E5000BC4F23DD22461026DDF828B0099C04E083
:103E6000103D102D09F1080917DD0133B5492493E0
:103E70001032072B259289E84200F1DD23AA214662
:103E8000584604F04BFB00287FF441AE103D102D46
:103E9000259A249B0DF1C009E7DC144601332C441C
:103EA000072B25942493C9F80070C9F8045008DD45
:103EB00023AA09990A9804F031FB00287FF427AE61
:103EC000259C0B9B0C9A08998A42ACBF9B185B18E7
:103ED0000B93002C40F0D482002324930DF1C009F1
:103EE00042E51193AB46002A41F059800E9F0737F7
:103EF00027F0070303F108020E921A6814925B6818
:103F00001593159B149D23F00044284621464FF03D
:103F1000FF328D4B05F0A0F9002840F0C1842846FF
:103F200021464FF0FF32884B05F078F9002840F029
:103F3000B784149815990022002305F065F900282C
:103F400040F04B879DF86F70804E814B079921F0B0
:103F500080010791119903224FF0000B0892472925
:103F6000D8BF1E460D92CDF84CB09DE6079B43F09E
:103F70000803079398F8003029E51193AB46002A0F
:103F800041F00980079B43F010030793079A12F052
:103F900020037FF4D2AD079911F0100200F00785DD
:103FA0000E988DF86F30BBF1000F046800F1040724
:103FB0004FF00005C0F221850A4622F080020792E8
:103FC00054EA05020E9700F043811F46CBE511939A
:103FD000AB46002A40F0D787079B43F010030793B6
:103FE000079A12F0200300F032830E9F073727F064
:103FF0000703002703F10801BB450E91D3E90045F3
:104000008DF86F70C0F25C8322F08003079354EA4E
:1040100005037FF425AEBBF1000F00F0FE80002405
:1040200040AE303406F8414D34E61193AB46002AD9
:1040300040F0A587079B47489D0640F197800E9F5B
:10404000073727F00703D3E9004503F108020E9272
:10405000079A12F0010700F0418254EA050300F0CC
:10406000F5849DF844208DF871200027079A8DF87B
:104070006F703023BB458DF8703042F00203C0F200
:10408000A98622F0800343F00203079330AE230990
:1040900004F00F0143EA05732A091C461546435CE8
:1040A00006F8013D54EA0503F1D1F3E50E991193A9
:1040B0000A688DF8982000230A461F468DF86F3055
:1040C000043201230893BB4613970E920D9326AE3C
:1040D000EEE51193AB46002A3FF4A0AD8DF86F10CA
:1040E0009CE5079B43F04003079398F800306EE48B
:1040F00098F8003000297FF46AAC0122202166E4A0
:10410000079B43F00103079398F800305FE40E9C8F
:1041100023680C9318460028234603F10403FFF696
:10412000B8AC0E9398F8003051E498F800300122B2
:104130002B214CE41193AB46002A3FF451AF8DF88C
:104140006F104DE760974000FFFFEF7F2097400022
:104150001C9740002C9740001193AB46002A40F07A
:104160000387079B99489D063FF569AF079BDC06CF
:1041700040F15E840E9A1346043314680E930025B2
:1041800066E798F800306C2B00F0E184079840F067
:10419000100007901BE4002A40F0DB86079B9B067B
:1041A00040F12F840E9A0B991368CD1708460432FC
:1041B00029460E92C3E90001FFF7D6BB079B43F0E7
:1041C0002003079398F8003001E40E9A11931668C3
:1041D00000248DF86F40171D002E00F0BD85002DC6
:1041E000C0F20F852A462146304603F0A1FB002885
:1041F00000F00486831B0D93A34623EAE3730E9716
:104200000893CDF84CB09DF86F704DE56F48119252
:10421000BBF1000F40F073815F464FF0000BCDF80B
:1042200034B030AE39E51193002A40F0B086119ACF
:10423000002A3FF465AC002301211F4608918DF848
:1042400098208DF86F309B4613930D9126AE2FE585
:10425000BBF1000F00F0DD8500270024002582E47B
:104260005A480793119254EA05030E974FF000073E
:104270007FF40CAF0024002508E7259C68E5119B1E
:10428000652B40F3A980149815990022002304F0AF
:10429000B1FF002800F03581249B4D4AC9F8002069
:1042A000013301340122072B25942493C9F80420FB
:1042B00000F3E68309F108091D9B129A934203DB80
:1042C000079BDB077FF5BAAD249B1699179AC9F8AF
:1042D000002001330C44072B2594C9F804102493C3
:1042E00000F33F8409F10809129B5D1E002D7FF742
:1042F000A5AD384A249B0F92102D40F3E68110267D
:104300000A9FDDF824B005E009F10809103D102DE1
:1043100040F3DB8101331034072B25942493C9F833
:1043200000A0C9F80460EFDD23AA5946384604F01E
:10433000F5F800287FF4EBAB259C249B0DF1C00918
:10434000E4E70C9B089A9F1A002F7FF725AD214ABE
:10435000249B0F92102F2BDD4A462146B94610258B
:1043600037460A9C099E06E0A9F11009B9F1100F21
:1043700002F1080218DD01331031072B2591249337
:10438000C2F800A05560EFDD23AA3146204604F0B4
:10439000C5F800287FF4BBABA9F11009B9F1100FE3
:1043A0002599249B30AAE6DC3E460C464F469146B2
:1043B00001330F9A24933C44072B259489E8840009
:1043C00000F3458209F10809E6E400BF4097400088
:1043D0005C9740000C974000129B249D012B40F3FA
:1043E0000882013501340123072D25942495C9F84D
:1043F0000060C9F8043000F30D8209F10809169A2B
:10440000179BC9F8003001351444072D25942495D5
:10441000C9F8042000F30E8209F10809002314985A
:104420001599002204F0E6FE129B002840F0C3809C
:10443000013B013501361C44072D24952594C9F80C
:104440000060C9F8043000F3F58009F10809199AF1
:10445000C9F80420013514441FAB072D2594249579
:10446000C9F800307FF7E8AC23AA09990A9804F04C
:1044700055F800287FF44BAB259C0DF1C009DDE415
:1044800023AA09990A9804F049F800283FF424ADBA
:10449000FFF73DBB23AA09990A9804F03FF80028CA
:1044A0007FF435AB259C0DF1C009B4E423AA09992A
:1044B0000A9804F033F800287FF429AB259C0DF10D
:1044C000C00955E423AA09990A9804F027F800289E
:1044D0007FF41DAB259C0DF1C00959E4BBF1000F21
:1044E0008DF86F70C0F2D88222F08003079354EAEF
:1044F00005037FF4CBADBBF1000F3FF48DAE002779
:10450000B8E61D9D002D40F3CA82139B129A934278
:10451000A8BF1346002B1D460DDD249BC9F8006083
:1045200001332C44072B2594C9F80450249300F33D
:104530009C8309F10809139B002DA8BF5B1B002B6E
:104540001D4640F3F680BA4A249B0F92102D40F38B
:104550008A8222461027DDF828B0099C05E009F17F
:104560000809103D102D40F37D8201331032072BD6
:1045700025922493C9F800A0C9F80470EFDD23AA9E
:104580002146584603F0CAFF00287FF4C0AA259AA6
:10459000249B0DF1C009E4E723AA09990A9803F0C6
:1045A000BDFF00287FF4B3AA9DF86F70259C0DF124
:1045B000C009FFF7CDBB5E1E002E7FF748AF9C4BB6
:1045C0000F93102E2CDDCDF834801027B046DDF887
:1045D00028B0099E06E0A8F11008B8F1100F09F103
:1045E00008091ADD01351034072D25942495C9F8E2
:1045F00000A0C9F80470EEDD23AA3146584603F046
:104600008DFF00287FF483AAA8F11008B8F1100FDD
:10461000259C249D0DF1C009E4DC4646DDF834807C
:104620000F9B01353444072D2594249589E84800D3
:104630007FF70BAF23AA09990A9803F06FFF0028B0
:104640007FF465AA259C249D0DF1C009FFE607991A
:1046500011F0100200F008810E988DF86F30BBF158
:10466000000F046800F104074FF0000526DB0A463E
:1046700022F08002079254EA05020E971F467FF44B
:10468000EFAAC8E4079BD9062AD4079B5A0627D568
:104690000E99B1F900400431E51722462B460E91E0
:1046A000FFF7CBBA0E998DF86F30BBF1000F0C6895
:1046B00001F104074FF0000580F247820E971F4674
:1046C00054EA05037FF4CCAAAAE401330F9A249399
:1046D0002C44072B259489E824007FF7ADABC3E673
:1046E0000E9A146813460433E51722460E93002AE7
:1046F0002B4673F10003BFF6A5AA64424FF02D07C5
:1047000065EB4505BBF1000F8DF86F70FFF6A8AAA9
:10471000079B23F080030793FFF7A2BA23AA099906
:104720000A9803F0FBFE00287FF4F1A9259C0DF107
:10473000C009139A1D9B32441746129A934247DBD5
:10474000079AD50744D412990E44F51BCB1A9D4203
:10475000A8BF1D46002D2E460DDD249AC9F8007015
:1047600001322C44072A2594C9F80450249200F3FE
:104770000B8309F10809002EACBF9D1B1D46002DBF
:104780007FF75CAB2A4A249B0F92102D9DDD1026EB
:104790000A9FDDF824B004E009F10809103D102D4E
:1047A00093DD01331034072B25942493C9F800A01E
:1047B000C9F80460F0DD23AA5946384603F0AEFE7E
:1047C00000287FF4A4A9259C249B0DF1C009E5E7EE
:1047D000249A16981799C9F8001001320444072A40
:1047E0002594C9F80400249200F3A98209F108096C
:1047F000A9E7079BD8073FF5F4AD01350134012344
:10480000072D25942495C9F80060C9F804307FF776
:104810001CAE0FE723AA09990A9803F07FFE00282F
:104820007FF475A9259C249D0DF1C009E7E500BF23
:104830000C97400023AA09990A9803F06FFE0028FC
:104840007FF465A9259C249D0DF1C009E6E523AA06
:1048500009990A9803F062FE00287FF458A9259C64
:104860000DF1C009FFF798BA079911F040033FF422
:1048700019AF0E988DF86F20BBF1000F048800F17E
:1048800004074FF00005C0F2B98121F080030793BF
:1048900054EA05030E9717467FF4E2A9FFF7BBBB66
:1048A000149C22462046159C2346214604F0D4FC45
:1048B000002840F01783119BBBF1FF3F23F020033A
:1048C0000D9300F07082472B00F09281079B43F418
:1048D00080731093159B1F1E149B0893BBBF3B4610
:1048E00003F1004700232D230F93119B662B00F04B
:1048F0005D82462B00F051810D9B089A452B21A823
:104900001EA90CBF0BF101055D46049003911DA883
:1049100002213B460290019500910A9801F0C4FBE8
:10492000119B672B064640F09082079BDA0740F107
:10493000AF827419089839460022002304F05AFC0B
:10494000002840F09081219B9C4206D930215A1CBE
:1049500021921970219B9C42F9D89B1B12930D9BAD
:10496000472B00F07981119B652B40F37D82119BD1
:10497000662B1D9B139300F05B82139A12998A4257
:10498000C0F23082079BD90700F1848222EAE273E9
:104990000D92672211920F9A002A40F053810893DA
:1049A000109B079393469DF86F70FFF77DB90799A9
:1049B00011F0400315D00E988DF86F20BBF1000F59
:1049C000048800F104074FF0000516DB21F0800396
:1049D000079354EA05030E973FF43AAC1746FFF7E6
:1049E000C2B80E998DF86F30BBF1000F0C6801F161
:1049F00004074FF0000580F2A5800E970027FFF70F
:104A0000B2B8079BDF060BD4079B5E0608D50E9A4B
:104A1000136804320E92BDF82C201A80FEF7A4BF52
:104A20000E9A136804320E920B9A1A60FEF79CBF1E
:104A30000E9A079B13F0400F134603F104030CBFBB
:104A4000146814880E930025FFF702BB0027BB45AE
:104A50008DF86F70FFF60EAC079B23F08003079371
:104A6000FFF7D6BB144601330F9A24932C44072B2F
:104A7000259489E824003FF751AE09F1080958E66A
:104A800023AA09990A9803F049FD00287FF43FA85A
:104A9000259C0DF1C0090FE40E9FFFF7E4BB249B9A
:104AA000B54AC9F80020013301340122072B2594AF
:104AB0002493C9F8042000F38E8009F108092DB968
:104AC000129B1BB9079BDF077FF5B8A9249B16999A
:104AD000179AC9F8002001330C44072B2594C9F814
:104AE0000410249300F3C28109F108096D42002DDE
:104AF00040F39B80A14A0F92102D40F3C3802246C1
:104B00001027DDF828B0099C05E009F10809103DDF
:104B1000102D40F3B68001331032072B25922493D9
:104B2000C9F800A0C9F80470EFDD23AA2146584651
:104B300003F0F4FC00287EF4EAAF259A249B0DF1E3
:104B4000C009E4E7079AFFF738BA079A90E5079B90
:104B500043F02003079308F1010898F80030FEF7AE
:104B600036BF23AA09990A9803F0D8FC00287EF4DE
:104B7000CEAF259C0DF1C009FFF7B6BB40210A98C6
:104B8000FEF768F9099A10601061002800F0E581CD
:104B9000099A40235361FEF7D8BE21A81EA90490AC
:104BA00003911DA803210290089ACDF804B03B465A
:104BB00000910A9801F078FA5D460646119B462B53
:104BC00006EB05047FF4B6AE3378302B00F07C8121
:104BD0001D9D2C44AEE623AA09990A9803F09EFC79
:104BE00000287EF494AF1D9D259C0DF1C00966E759
:104BF000BBF1000F08BF4FF0010B67E60E97174699
:104C00005EE53046FEF71CFEA34603460D90FFF717
:104C1000F4BA23AA09990A9803F080FC00287EF4CC
:104C200076AF259C249B0DF1C0091299C9F800604C
:104C300001330C44072B25942493C9F804107FF703
:104C4000FBA811E42D270893109B07938DF86F7034
:104C50004FF0000BFFF729B81D9BDD1C1EDB9B45A9
:104C60001CDB139389E6234677E623AA09990A9861
:104C700003F054FC00287EF44AAF259C0DF1C009D6
:104C800059E4144601330F9A24932C44072B25949E
:104C900089E82400BDDC09F10809C6E7119A023A47
:104CA0001192013B002B9DF844201D93B8BF5B423D
:104CB0008DF87C20B4BF2D222B22092B8DF87D206E
:104CC00040F3F1800DF18B0004462D4A82FB032155
:104CD000DA17C2EBA10202EB8201A3EB410303F15D
:104CE0003001092A134604F8011DEEDC2146303359
:104CF000DAB201F8012D884240F23A810DF17E01CD
:104D0000234601E013F8012B01F8012B9842F9D159
:104D1000431C1B1B0DF17E0213441FAA9B1A129AFF
:104D20001993012A13440D9340F3EA800D9B169AC0
:104D3000134400220D93139223EAE3732BE623AA74
:104D400009990A9803F0EAFB00287EF4E0AE1D9B67
:104D5000259C0DF1C009F6E4062D2B4628BF06233D
:104D60000D9323EAE373B3460E97139637460893E1
:104D7000044EFEF799BF00BF5C9740000C974000BF
:104D8000676666665497400023AA09990A9803F05B
:104D9000C5FB00287EF4BBAE1D9B129A259CD31A3E
:104DA0000DF1C009E7E44FF0060B8FE521A81EA91D
:104DB000049003911DA803210290089ACDF804B035
:104DC0003B4600910A9801F06FF95D46064600EBFC
:104DD0000B04F9E60793FFF759B92D278DF86F708B
:104DE000FFF7B2B8169A129B1344139A0D93002A38
:104DF0007EDD672223EAE3731192CCE525EAE573B1
:104E00000E9708930D95834613909DF86F70FEF7EB
:104E10004BBF079BDB075F4605D540AE302306F846
:104E2000413DFEF737BFCDF834B030AEFEF735BFA9
:104E3000002B7DDDBBF1000F3DD1079AD4073AD49A
:104E40001A460D9223EAE373A5E5119B472B7FF4E5
:104E500070AD079BDB073FF5B1AE219B9B1B129307
:104E60000D9B472B3FF4F8AE1D9B1AE723AA099927
:104E70000A9803F053FB00287EF449AE1D9D259C43
:104E8000249B0DF1C00931E6A0460025FEF7A1BD27
:104E9000219B62E5169A139B134467220D9311928E
:104EA00023EAE37377E5303330228DF87F308DF8D5
:104EB0007E2020AB31E7139B169A9D1805EB0B0360
:104EC0000D9323EAE37366E5089839460022002330
:104ED00004F090F900287FF47BAEC5F101051D9523
:104EE0002C4427E5324E334B9DF86F70FFF72EB8F8
:104EF000139B0D9AC3F101031A4413460D9278E7F0
:104F0000079B13F001037FF411AF13930D9B23EA6A
:104F1000E37340E50E9898F8013005680430002DE1
:104F20000E90A046BEF653AD4FF0FF35FEF74FBDD5
:104F3000BBF1000F02D1079BD80707D5169B5D1C5C
:104F400005EB0B030D9323EAE37324E501230D9393
:104F500021E58DF86F10FFF721B90A9A0C23136031
:104F60004FF0FF30FEF7DCBD8DF86F10FFF7F9B89A
:104F70000DF17E03D1E68DF86F10FEF7D9BD8DF8E7
:104F80006F10FFF757B88DF86F10FFF725B88DF841
:104F90006F10FFF74CB98DF86F10FEF7F3BF8DF867
:104FA0006F10FEF7A3BF8DF86F10FEF733BE00BF82
:104FB00028974000249740004B6E2DE9F0479C0451
:104FC00092462CD5936812683BB30F46804602F197
:104FD000080919E96000B60817D0043D002401E073
:104FE000A64210D03A4655F8041F404602F02AF96E
:104FF000431C04F10104F3D10023CAF80830CAF8B5
:105000000430BDE8F087DAF80830A3EB8603CAF86D
:10501000083009F10809002BDBD10020ECE702F091
:1050200059FA0023CAF80830CAF80430BDE8F087FE
:105030002DE9F04FABB01C460091904604930590CB
:1050400018B1836B002B00F0DE800098B0F90C10D3
:105050008AB2950407D4436E41F4005223F40053FE
:105060008281436692B2110740F1B180009B1B69B7
:10507000002B00F0AC8002F01A020A2A00F0B58082
:1050800000230DF1680B02930F930E93CDF834B00B
:10509000DA4698F800304446FBB1252B02D11CE0DB
:1050A000252B03D014F8013F002BF9D1C8EB0405E0
:1050B0009DB10E9B0F9ACAF8008001332A44072B3A
:1050C000CAF804500F920E937BDD002A40F0288529
:1050D000029B0E922B44DA4602932378002B00F0B9
:1050E0003E8400214FF000034FF0FF328DF82F3047
:1050F00004F101086378019208460E460C4608F157
:105100000108A3F12002582A00F29383DFE812F08D
:105110004603910391034E0391039103910391037D
:105120009103910389026702910380006C0291034D
:10513000C60159025902590259025902590259022B
:105140005902590291039103910391039103910331
:105150009103910391039103CB0191039103910377
:10516000910391039103910391039103910314021D
:1051700091039103910391039103EE029103910333
:1051800011039103910391039103910391039103FF
:1051900091039103910334038A03910391039103D3
:1051A00067038A03910391036C03910379039502CA
:1051B0008500E90291039B029103BA0291039103D6
:1051C00053030AF1080A029B2B44029385E70099D6
:1051D000059800F061FE002840F05885009B9A89F0
:1051E00002F01A020A2A7FF44BAF0099B1F90E308F
:1051F000002BFFF645AF23464246059800F016FE09
:105200002BB0BDE8F08F01F0B3FF1EE764420493BA
:1052100046F0040698F8003071E7302104988DF8C4
:105220003010019906944FF0000378228DF82F304A
:10523000002903468DF83120046803F104034FF080
:10524000000546F00202C0F2258526F0800654EAE9
:10525000050246F00206049340F0BF84B348019B68
:10526000002B40F01C8499460023019303935F4672
:10527000019B039A9342B8BF13461D46B9F1000F34
:1052800000D0013516F00203079318BF023516F05F
:105290008403089340F0F182069B5C1B002C40F3D2
:1052A000EC82102C40F35685DFF88492DDF838E06C
:1052B0000F9AD4461023C2467046A8464D46DDF8E4
:1052C000149007E000F1020E0CF1080C0846103CA7
:1052D000102C13DD411C103207290F92CCF800501E
:1052E000CCF804300E91EDDD002A40F0B782103C7E
:1052F000102C10464FF0010EDC46EBDCA946704640
:105300004546D046E246224407280F92CAF800904C
:10531000CAF804400E9000F375839DF82F300AF10F
:10532000080A00F1010E002B40F0B082079B002B11
:1053300000F0C38202320CA90223BEF1070F0F92C4
:10534000CDF838E08AE80A0040F37883002A40F07C
:105350000A84089B802B4FF0010E1046DA4640F07D
:10536000B082069B5C1B002C40F3AB82102CDFF854
:10537000C49140F30B85D6461023C246A8464D463D
:10538000DDF8149007E000F1020C0EF1080E08465B
:10539000103C102C13DD411C103207290F92CEF85F
:1053A0000050CEF804300E91EDDD002A40F0158358
:1053B000103C102C4FF0010C1046DE46EBDCA946E9
:1053C0004546D046F2462244BCF1070F0F92CAF878
:1053D0000090CAF80440CDF838C000F3D283019B96
:1053E00003995C1A002C0AF1080A0CF1010E6046C0
:1053F00000F36D820399CAF800700A44BEF1070FEA
:105400000F92CAF80410CDF838E040F3CE82002A9B
:1054100040F03A8370070E9238D5069B5C1B002C37
:1054200034DDDA46102C40F3AB84DFF804910E999A
:105430004F461026DDF8149006E0881C0AF1080A91
:105440001946103C102C13DD4B1C1032072B0F9209
:10545000CAF80070CAF804600E93EEDD002A40F02E
:105460008E82103C102C4FF001001146DA46EBDC26
:10547000B946224407280F92CAF80090CAF804409F
:105480000E9040F39B82002A40F02584029B069AEE
:10549000AA42ACBF9B185B19029399E246F08006C2
:1054A00098F800302BE60694002940F0AF8446F0CF
:1054B0001006B30640F112830499073121F0070169
:1054C000D1E900230831049114461D46002A73F1E6
:1054D0000003C0F28683019B9DF82F90002BC0F241
:1054E0001A8354EA050326F0800600F0ED80002DB3
:1054F00008BF0A2CC0F0ED805F46204629460A22EC
:10550000002303F0E7FE303207F8012D204629463C
:1055100000230A2203F0DEFE04460D4654EA05038A
:10552000EBD1C7EB0B030393A2E600BF409740000B
:1055300080974000709740000694002940F06284F4
:1055400046F0100616F0200300F0AE82049B0733ED
:1055500023F007034FF000028DF82F20D3E9004518
:1055600003F10802019B0492002BC0F2748154EAFB
:10557000050326F0800640F06E81019B002B00F0B1
:1055800030844FF00009002400255F46E20842EA1B
:105590004572E90804F007030D461446303354EA17
:1055A000050207F8013DF1D1F407BAD5302BB8D088
:1055B00030227B1E07F8012CC3EB0B0203921F461F
:1055C00056E6A3F13002002418F8013B04EB8404F2
:1055D00002EB4404A3F13002092AF5D991E598F8C9
:1055E000003001212B208AE598F800302A2B08F1A1
:1055F000010500F0DD83A3F13002092AA84698BF17
:10560000002500F2CE8318F8013B05EB850502EB7F
:105610004505A3F13002092AF5D945EAE572019260
:105620006FE5049A14681346002C03F10403FFF697
:10563000EDAD049398F8003061E50694002981D01F
:105640008DF82F007EE7049A069417684FF0000348
:105650008DF82F30141D019B002F00F08683002B46
:10566000C0F25F831A460021384602F061F9002833
:1056700000F08F83C31B0393002304949DF82F90A5
:105680000193F5E50694002940F0B98316F020094E
:1056900035D116F0100303D116F0400940F02A83EB
:1056A000049A13461468019A8DF82F90002A03F18A
:1056B00004034FF00005C0F2328354EA050226F0DD
:1056C000800604937FF413AF019B002B3FF4CCAD15
:1056D00000242AAF303407F8414DC7EB0B03039386
:1056E000C6E546F0200698F8003008E50694002943
:1056F00040F06E8346F0100616F02009C9D0049BD6
:10570000073323F007034FF000028DF82F20D3E971
:10571000004503F10802019B0492002BC0F2F981BD
:1057200054EA050326F080064FF000097FF4DFAE4F
:10573000CAE70694002940F05183B206AE4841D52D
:10574000049A073222F00702D2E9004502F108016B
:10575000049116F0010900F0778154EA050240F047
:1057600026824FF000038DF82F30019B002BC0F2F2
:10577000968126F0800672E5049A069413688DF8E7
:10578000403013464FF00001012504338DF82F10EF
:105790000493039510AF0023019373E598F800304C
:1057A00000287FF4ACAC01212020A8E446F00106DB
:1057B00098F80030A3E40694002940F00C83B20668
:1057C0008E48BDD40499F7060A4600F19D817506FE
:1057D00040F19A8104320C8804920025B9E746F022
:1057E000400698F800308AE498F800306C2B03BF2C
:1057F00098F8013046F0200608F1010846F010063E
:105800007DE4002940F00983B40640F11C82049A2B
:1058100002991368CD170846043229460492C3E959
:10582000000136E4069400293FF443AE8DF82F00C2
:105830003FE60694002940F0ED82002B00F08F80B7
:1058400001258DF840304FF000038DF82F3003957F
:1058500010AFA0E704934FF0000996E60DAA009957
:1058600009934846FFF7A8FB00287FD10E980F9AAE
:10587000099B00F1010EDC4629E50E980F9A00F114
:10588000010E9DF82F30002B3FF450AD01320DF189
:105890002F010123BEF1070F0F92CDF838E08AE8FF
:1058A0000A0040F3BF80002A40F04E81079900298A
:1058B00040F0BE809E461046DA46089B802B3FF49F
:1058C00050AD019B03995C1A002C7FF793AD102C0F
:1058D000DFF82C9125DDD4461023C246A8464D465C
:1058E000DDF8149007E000F1020E0CF1080C0846F8
:1058F000103C102C11DD411C103207290F92CCF8FE
:105900000050CCF804300E91EDDDD2B9103C102CD3
:105910004FF0010E1046DC46EDDCA9464546D04668
:10592000E2462244BEF1070F0F92CAF80090CAF86F
:105930000440CDF838E02EDC0AF1080A0EF1010E21
:1059400058E50DAA009901934846FFF735FB68B961
:105950000E980F9A019B00F1010EDC46C8E70F9BE1
:1059600023B1059800990DAAFFF726FB009B9B89A0
:105970005A0600F18B8102982BB0BDE8F08F0DAA7A
:1059800000994846FFF718FB0028EFD10E990F9AAF
:10599000481CDA4655E5002A40F0FB80039A1B922A
:1059A00001230F921A970E93DA460AF1080A71073B
:1059B00004D5069B5C1B002C3FF734AD029B069977
:1059C000A942ACBF5B185B190293002A40F0B38078
:1059D00000230E93DA46FFF75CBB0DAA00990793EC
:1059E0004846FFF7E9FA0028C0D10E980F9A079BA6
:1059F00000F1010CDE46CBE42C97400040974000BC
:105A000070974000002A40F033819DF82F30002B22
:105A100000F0F58001230DF12F011A461B939E46DD
:105A20001A91DA4670460AF1080A0EF1010E7DE479
:105A30000CA902229E461A911B92DA4670460AF180
:105A4000080A0EF1010E38E7019B8DF82F90002B0C
:105A5000C0F22A8154EA050326F080063FF4FFAB2A
:105A60005F46230904F00F0143EA05732A091C4627
:105A70001546435C07F8013D54EA0503F1D1C7EB35
:105A80000B030393FFF7F4BB0DAA00990598FFF7EA
:105A900093FA00287FF46AAF0F9ADA4687E74FF04F
:105AA000000900240025DBE716F0100200F0B280A8
:105AB00004998DF82F300A460C680199002902F1EB
:105AC00004024FF00005C0F2598154EA050126F0A6
:105AD000800604923FF451AD994656E5F7060AD484
