S015000030392D50494F2D4452495645522E7372656398
S214400000C0244020B5034000B1034000B103400087
S214400010B1034000B1034000B103400000000000BF
S214400020000000000000000000000000B103400097
S214400030B103400000000000B1034000B10340009F
S214400040B1034000B1034000B1034000B10340009B
S214400050B1034000B1034000B1034000B10340008B
S214400060B1034000000000007102400081024000E1
S21440007091024000B1034000B1034000B10340008C
S214400080A1024000B1024000B1034000B10340006D
S214400090B1034000B1034000B1034000B10340004B
S2144000A0B1034000B1034000B1034000B10340003B
S2144000B0B1034000B1034000B1034000B10340002B
S2144000C0B1034000B1034000B1034000B10340001B
S2144000D000000000B103400000000000B1034000F3
S2144000E0B1034000B1034000B1034000B1034000FB
S2144000F0B1034000B1034000B1034000B1034000EB
S214400100B1034000B1034000B1034000B1034000DA
S214400110B1034000000000000000000000000000A6
S214400120B1034000B1034000B1034000B1034000BA
S214400130B103400000000000B1034000B10340009E
S21440014010B5054C237833B9044B13B10448AFF3CC
S21440015000800123237010BD3004402000000000C2
S21440016004084000084B10B51BB108490848AFF3D7
S21440017000800848036803B910BD074B002BFBD02E
S214400180BDE81040184700BF00000000340440207F
S21440019004084000040840000000000070B5104805
S2144001A0104C114DA0473E210020104B9847A847C1
S2144001B00028FCD00E4B98470E4D0F4A0F4B9A62C4
S2144001C0A8470028FCD002200D4B98470D4B002036
S2144001D098470D4B984723460148BDE8704018475E
S2144001E000A3E1112905400081034000310340008F
S2144001F091034000A1034000013F182000060E4036
S214400200C1024000ED0240005D044000C06C7047F3
S214400210806C7047F8B50446124B0F469847054623
S214400220114B2046984705401AD0104C04F1600602
S21440023054F80C3CBB420FD154F8081C29420BD052
S21440024023683846984754F8083CA64225EA0305F2
S21440025006D0103425B1EBE7A64201D01034E7E7CC
S214400260F8BD00BF0D024000110240005804402077
S2144002700A210148014B1847000E0E401502400067
S2144002800B210148014B184700100E401502400054
S2144002900C210148014B184700120E401502400041
S2144002A010210148014B184700140E40150240002B
S2144002B011210148014B184700160E401502400018
S2144002C00238022896BF074B002233F81020064B10
S2144002D0196B21F440710A431A639A6E1207FCD5D3
S2144002E0704700BFD007400000060E400F4B1A6B09
S2144002F022F07002104341F201021863986E0B49D7
S214400300000703D4013AF9D1012070470A6B22F066
S214400310030242F002020A6341F20102996E0907A3
S21440032002D4013AFAD1EFE70020704700060E40AB
S21440033010B5104C30B1236A0F4A1A400F4B134386
S214400340236210BD226A090222F45C1389B223F0AC
S214400350030343F45C1343F001030B432362A36E91
S214400360044ADB07FBD5136A43F09B7343F48033A0
S214400370136210BD00060E40FCFFC8FE02003701A7
S214400380024B986E00F48030704700BF00060E4067
S2144003904FF00052014B9A62704700BF00060E4075
S2144003A0024B986E00F00200704700BF00060E40F9
S2144003B0FEE7000007B51E4B1E4A9A4202D0043A9A
S2144003C01D4903E01D4B00211D4A06E08B42F9D231
S2144003D052F8040F43F8040BF8E7934202D243F86E
S2144003E0041BFAE7174B184A23F07F039360EFF39A
S2144003F01083B3FA83F35B09019372B6BFF35F8F42
S214400400124A00231249137001980B6843F4700394
S2144004100B60BFF34F8FBFF36F8F20B10123137074
S214400420BFF35F8F62B60B4B98470B4B9847FEE780
S21440043000004020040840003004402030044020A3
S214400440BC0440200000400000ED00E000004020DA
S21440045088ED00E095064000390640002C4A2D4BBA
S21440046010B5116B01F0030101290CD002D302290B
S2144004701AD03BE0284949690C064CBF4FF400416E
S2144004804FF4FA4131E0116AC8010BD42349196090
S214400490116A01F07001102902D0202902D025E00F
S2144004A01F4922E01F4920E0116AC9010BD41B49AD
S2144004B01960116A01F07001102902D0202902D07B
S2144004C003E0174900E017491960116B104801F026
S2144004D0030102290AD1816A806AC1F30A44196875
S2144004E0C0B204FB0111B1FBF0F11960126B02F0CF
S2144004F07002702A04D11A680321B2FBF1F205E0BB
S214400500034A126BC2F302111A68CA401A6010BD41
S21440051000060E400400402010180E4000093D0022
S21440052000127A00001BB7000E4B98420E4B02D8C2
S2144005304FF0806214E00D4A904201D80C4A0FE01A
S2144005400C4A904201D80C4A0AE00C4A904201D824
S2144005500B4A05E00B4A904294BF4FF004220A4AE9
S2144005601A607047FF2C3101000C0E40FF596202A2
S21440057000010004FF86930300020004FFB3C40496
S21440058000030004FFE0F50500050004016001617A
S21440059003B941660AB94163704701637047D307A0
S2144005A04161016001D5416600E00166130700D550
S2144005B0016270470163704741637047C06B0840F3
S2144005C07047000001231F28044A03FA00F301D8AD
S2144005D0136101E0C2F800310020704700060E406B
S2144005E010B50446064B0C2098472246054C00237F
S2144005F04FF480710448A446BDE81040604700BFF1
S214400600C50540008D05400000120E4010B5074C51
S2144006100A20074B9847074B09224FF400612046B3
S21440062098474F23C4F88C3010BD00BF000E0E40D4
S214400630C50540009F05400008B50D4B98474FF450
S21440064000420C4B01200C4C5A600C4B98470C4B0C
S21440065098474FF400610B48A0474FF4807110B1A3
S21440066009480A4B01E00848094B9847F1E700BFA4
S2144006709D01400050180E40BD054000E105400079
S2144006800D064000000E0E4000120E40B50540001C
S214400690B905400070B50F4E0F4D761BB61018BF0B
S2144006A0002405D0013455F8043B9847A642F9D1BA
S2144006B00A4E0B4D761B00F093F8B61018BF002478
S2144006C006D0013455F8043B9847A642F9D170BD90
S2144006D070BD00BFEC074000EC074000F407400048
S2144006E0EC074000024B13B1024800F005B87047D3
S2144006F00000000005074000002301461A46184641
S21440070000F014B838B5074D074C2C1BA41005D084
S214400710013C55F8043D9847002CF9D1BDE83840D7
S21440072000F068B804084000000840002DE9F04793
S214400730254C2568D5F8484106468846924699464F
S214400740C4B360681F2817DC431C76B104EB8005F1
S2144007500122C5F888A0D4F8881182401143022EA1
S214400760C4F88811C5F808911ED00230636044F87A
S21440077020800020BDE8F087144B03B34FF4C870C8
S214400780AFF300800446D0B1D5F84831002780E862
S2144007908800C5F8484138460123C4F88871C4F833
S2144007A08C71002EE1D0D1E7D4F88C110A43C4F8FE
S2144007B08C21DAE705F5A674C5F84841C1E74FF045
S2144007C0FF30BDE8F08700BFDC07400000000000B7
S2144007D00001000300020000430000000800402023
S2144007E0F8B500BFF8BC08BC9E467047E50640001A
S2144007F065014000F8B500BFF8BC08BC9E4670478F
S208400800410140002D
S2144008040100000000093D0000000000F402402002
S2144008145C034020C40340200000000000000000A9
S214400824000000000000000000000000000000007F
S214400834000000000000000000000000D807400050
S214400844000000000000000000000000000000005F
S214400854000000000000000000000000000000004F
S214400864000000000000000000000000000000003F
S214400874000000000000000000000000000000002F
S214400884000000000000000000000000000000001F
S214400894000000000000000000000000000000000F
S2144008A400000000000000000000000000000000FF
S2144008B401000000000000000E33CDAB34126DE69C
S2144008C4ECDE05000B000000000000000000000005
S2144008D400000000000000000000000000000000CF
S2144008E400000000000000000000000000000000BF
S2144008F400000000000000000000000000000000AF
S214400904000000000000000000000000000000009E
S8044003B503
