:020000040040BA
:10000000D824402029134000D9134000D9134000C0
:10001000D9134000D9134000D9134000000000005C
:10002000000000000000000000000000D9134000A4
:10003000D913400000000000D9134000D91340003C
:10004000D9134000D9134000CD174000D913400008
:10005000D9134000D9134000D9134000D9134000F0
:10006000D913400000000000B1084000C90840005A
:10007000E1084000D9134000D9134000D9134000D3
:10008000F908400011094000D9134000D91340007D
:10009000D9134000D9134000D9134000D9134000B0
:1000A00095174000D9134000D9134000D9134000E0
:1000B000D9134000D9134000D9134000D913400090
:1000C000D9134000D9134000D9134000D913400080
:1000D00000000000D913400000000000D9134000C8
:1000E000D9134000D9134000D9134000D913400060
:1000F000D9134000D9134000D9134000D913400050
:10010000D9134000D9134000D9134000D91340003F
:10011000D9134000000000000000000000000000B3
:10012000D9134000D9134000D9134000D91340001F
:10013000D913400000000000D9134000D91340003B
:1001400010B5054C237833B9044B13B10448AFF311
:1001500000800123237010BD3804402000000000FF
:10016000941C4000084B10B51BB108490848AFF378
:1001700000800848036803B910BD074B002BFBD073
:10018000BDE81040184700BF000000003C044020BC
:10019000941C4000941C40000000000080B582B018
:1001A00000AF78607B68072B31D801A252F823F0AA
:1001B0000D024000D1014000D9014000E1014000A2
:1001C000E9014000F1014000F90140000302400054
:1001D0000020114B98471AE001200F4B984716E07A
:1001E00000200E4B984712E010200C4B98470EE071
:1001F00020200A4B98470AE03E210020084B9847F0
:1002000005E03E210120064B984700E000BF00BFFB
:100210000837BD4680BD00BF290A4000950A40004E
:10022000050B400080B582B000AF78607B68072B7B
:1002300026D801A252F823F0590240005D02400086
:100240005D0240006F0240006F0240006F024000FC
:100250006F0240006F024000012312E00B4B9847F1
:100260000346002B14BF01230023DBB209E0084B37
:1002700098470346002B14BF01230023DBB200E0A4
:10028000002318460837BD4680BD00BF610A400004
:100290007D0B400080B483B000AF78607B68072B93
:1002A00025D801A252F823F0C9024000CF02400035
:1002B000D5024000DB024000DF024000E3024000C4
:1002C000E7024000EB0240004FF4FA4310E04FF425
:1002D00000430DE04FF400430AE0084B08E0084BF0
:1002E00006E0084B04E0074B02E0064B00E0002369
:1002F00018460C37BD465DF8047B704700093D0089
:1003000000127A00001BB70080B582B000AF034630
:10031000FB7100BFFB791846054B9847034683F0F5
:100320000103DBB2002BF5D100BF0837BD4680BD0D
:100330002502400080B586B000AFF8607A603B606F
:100340000B46FB727B68002B07D13B68002B04D166
:10035000FB684FF470021A6019E0FB7A18460E4BE6
:10036000984702467B68B2FBF3F37B617B693A688E
:1003700002FB03F37B613B68013B1A04074B13400C
:100380007A68D2B2134343F47C52FB681A6000BF10
:100390001837BD4680BD00BF950240000000FF0732
:1003A00080B582B000AF786039603B68002B08D11F
:1003B000094B9847094A7B681B6843F000539362D6
:1003C00005E0064A7B681B6843F48033D36100BFB5
:1003D0000837BD4680BD00BF990B400000060E40A7
:1003E00080B582B000AF78607B68002B03D1054BED
:1003F0009847034602E0044B9847034618460837DF
:10040000BD4680BDB50B4000D10B400080B582B029
:1004100000AF0346FB71FB79033B042B08D8FB7943
:100420001846064B9847FB791846054B984700E05D
:1004300000BF00BF0837BD4680BD00BF9D01400022
:100440000903400080B582B000AF786000BF7868D3
:10045000044B98470346002BF9D000231846083771
:10046000BD4680BDE103400080B500AF0620054BCE
:100470009847024613469B0013449A0013441846BB
:1004800080BD00BF9502400080B500AF024B984789
:100490000346184680BD00BF6904400090B583B094
:1004A00000AF1348134B98470620134B9847381D4D
:1004B000192301220621114CA0473B1D002118469B
:1004C0000F4B984700200F4B984702200E4B984740
:1004D00000200E4B98470E4B98470E4B984703460B
:1004E0001846044B984700BF0C37BD4690BD00BF6F
:1004F00000A3E1114D1540000D04400035034000FC
:10050000A10340004504400029094000A50940001E
:10051000E11340008904400080B485B000AFF8606A
:10052000B9607A607B68002B03D0FB68BA685A66B2
:1005300002E0FB68BA681A6600BF1437BD465DF872
:10054000047B704780B483B000AF786039607B680B
:100550003A681A6300BF0C37BD465DF8047B7047EC
:1005600080B483B000AF786039607B683A685A63C2
:1005700000BF0C37BD465DF8047B704780B584B082
:1005800000AFF860B9607A60B968F868194B9847AD
:100590007B6803F001031A46B968F868164B984760
:1005A0007B6803F00A03002B03D0FB68BA681A6269
:1005B00002E0FB68BA685A627B6803F00203002B12
:1005C00004D0FB68BA68C3F8802008E07B6803F0B9
:1005D0000803002B03D0FB68BA68C3F88420FB68CB
:1005E000BA685A61FB68BA681A6000BF1037BD4626
:1005F00080BD00BF110740001905400080B584B0E0
:1006000000AFF860B9607A603B60B968F868124B77
:100610009847BA69B968F868104B98473B68002B4F
:1006200003D0FB68BA681A6502E0FB68BA685A65CD
:100630007B68002B03D0FB68BA681A6302E0FB6892
:10064000BA685A63FB68BA681A61FB68BA681A60CC
:1006500000BF1037BD4680BD11074000190540009E
:1006600080B483B000AF786039607B689A6B3B6878
:100670001340002B01D1002300E0012318460C3762
:10068000BD465DF8047B704780B485B000AFF8606C
:10069000B9607A607B6803F01003002B20D0FB6800
:1006A000BA68C3F8B0207B6803F02003002B04D0A5
:1006B000FB68BA68C3F8D42003E0FB68BA68C3F8E3
:1006C000D0207B6803F04003002B04D0FB68BA689D
:1006D000C3F8C02008E0FB68BA68C3F8C42003E090
:1006E000FB68BA68C3F8B42000BF1437BD465DF894
:1006F000047B704780B483B000AF786039607B685A
:100700003A681A6400BF0C37BD465DF8047B704739
:1007100080B483B000AF786039607B683A685A640F
:1007200000BF0C37BD465DF8047B704780B483B0D2
:1007300000AF78607B68DB6C18460C37BD465DF80F
:10074000047B704780B483B000AF78607B689B6C9B
:1007500018460C37BD465DF8047B704780B584B001
:1007600000AF786039607868264B9847F860786801
:10077000254B98470246FB681340FB60FB68002B43
:100780003CD00023BB6034E0204ABB681B0113440B
:100790001A683B689A4226D11C4ABB681B01134465
:1007A00004331A68FB681340002B1CD0174ABB683F
:1007B0001B0113440C331B681449BA6812010A4424
:1007C00010681249BA6812010A44043212681146CC
:1007D00098470E4ABB681B01134404331B68DB4374
:1007E000FA681340FB60BB680133BB60BB68062B33
:1007F00003D8FB68002BC7D100E000BF00BF103753
:10080000BD4680BD2D0740004507400054044020F0
:1008100080B586B000AFF860B9607A603B60214B6C
:100820001B68062B01D9012338E00023FB7511E07A
:10083000FB7D1B011C4A13443B613B691A68BB6882
:100840009A4204D13B695A687B689A4208D0FB7D82
:100850000133FB75FA7D134B1B689A42E8D900E01F
:1008600000BF3B69BA681A603B697A685A603B69A5
:100870003A689A603B693A6ADA60FA7D094B1B680C
:1008800001339A4204D1074B1B680133054A1360B8
:100890003A687968F868054B984700231846183776
:1008A000BD4680BDC4044020540440208906400059
:1008B00080B500AF0A210248024B984700BF80BDB7
:1008C000000E0E405D07400080B500AF0B210248CE
:1008D000024B984700BF80BD00100E405D074000EE
:1008E00080B500AF0C210248024B984700BF80BD85
:1008F00000120E405D07400080B500AF1021024895
:10090000024B984700BF80BD00140E405D074000B9
:1009100080B500AF11210248024B984700BF80BD4F
:1009200000160E405D07400080B483B000AF7860D1
:100930007B68013B032B1AD801A252F823F000BFB9
:1009400051094000570940005F0940006709400015
:1009500000237B600EE04FF480737B600AE04FF46D
:1009600040737B6006E04FF400737B6002E000237D
:100970007B6000BF0A490A4B1B6B23F440727B6803
:1009800013430B6300BF064B9B6E03F00803002B61
:10099000F9D000BF0C37BD465DF8047B704700BF3F
:1009A00000060E4080B485B000AF78601D491D4B35
:1009B0001B6B23F070027B6813430B634FF480536F
:1009C000FB6007E0FB68002B01D1012323E0FB68FB
:1009D000013BFB60134B9B6E03F00803002BF1D02F
:1009E000104A104B1B6B23F0030343F00203136305
:1009F0004FF48053FB6007E0FB68002B01D101231B
:100A000009E0FB68013BFB60064B9B6E03F00803AB
:100A1000002BF1D0002318461437BD465DF8047B47
:100A2000704700BF00060E4080B483B000AF78600E
:100A30007B68012B05D10749064B9A68064B134387
:100A40008B60044B054A1A6000BF0C37BD465DF849
:100A5000047B704710180E40000010A5080000A588
:100A600080B400AF094B5B6903F08003002B07D013
:100A7000074B9B6E03F08003002B01D0012300E0A5
:100A800000231846BD465DF8047B704710180E40E1
:100A900000060E4080B483B000AF78601549154B56
:100AA0001A6A154B13430B6200BF124B9B6E03F483
:100AB0000033002BF9D00F490E4B1A6A0F4B13402D
:100AC0007A68134343F45C130B6200BF094B9B6EBF
:100AD00003F40033002BF9D00649064B1A6A084B81
:100AE000134043F45C130B6200BF0C37BD465DF846
:100AF000047B704700060E40080037008FFFC8FFD8
:100B0000FFFFC8FE80B483B000AF786039607B68B7
:100B1000002B08D01349134B1B6A134A1A40134B7E
:100B200013430B6218E00F490E4B1A6A104B134027
:100B30003A68120292B21A430E4B13430B6200BF83
:100B4000084B9B6E03F00103002BF9D00549054BC0
:100B50001A6A094B13430B6200BF0C37BD465DF8A0
:100B6000047B704700060E40FCFFC8FE0200370100
:100B7000FCFFC8FF010037000000370180B400AF60
:100B8000044B9B6E03F480331846BD465DF8047B2E
:100B9000704700BF00060E4080B400AF044B4FF01A
:100BA00000529A6200BFBD465DF8047B704700BFEB
:100BB00000060E4080B400AF044B9B6E03F00203AE
:100BC0001846BD465DF8047B704700BF00060E4026
:100BD00080B400AF044B9B6E03F040031846BD4643
:100BE0005DF8047B704700BF00060E4080B483B000
:100BF00000AF78607B683F2B01D901232FE07B6831
:100C00001F2B13D8194B9A6901217B6801FA03F352
:100C10001A4001217B6801FA03F39A421ED0134A5D
:100C200001217B6801FA03F3136117E07B68203B25
:100C30007B600E4BD3F8082101217B6801FA03F396
:100C40001A4001217B6801FA03F39A4206D0074A51
:100C500001217B6801FA03F3C2F800310023184632
:100C60000C37BD465DF8047B704700BF00060E40A0
:100C700080B483B000AF786039603B68002B06D049
:100C80007B685B6843F001027B685A6005E07B6823
:100C90005B6823F001027B685A6000BF0C37BD46D9
:100CA0005DF8047B704700BF80B483B000AF78600C
:100CB00039607B683A681A6200BF0C37BD465DF840
:100CC000047B704780B487B000AFF860B9607A6089
:100CD0003B60FB689B687B6102E0FB689B687B6113
:100CE000FB689A687B699A42F7D1BB68002B1CD0DD
:100CF0007B691B0C03F03F033B613B691A091346F8
:100D00009B0013445B001A463B6903F00F031A442F
:100D1000BB681A607B6903F48003002B05D0BB68B5
:100D20001B6803F10C02BB681A607B68002B11D0B2
:100D30007B691B0A03F07F033B613B691A09134679
:100D40009B0013445B001A463B6903F00F031A44EF
:100D50007B681A603B68002B10D07B6903F07F032F
:100D60003B613B691A0913469B0013445B001A461A
:100D70003B6903F00F031A443B681A6000BF1C373D
:100D8000BD465DF8047B704780B487B000AFF86063
:100D9000B9607A603B6000237B61FB685B6803F0AD
:100DA0000103002B09D0BB680C2B06D9BB680C3B98
:100DB000BB607B6943F480037B61BB68334AA2FB61
:100DC0000323DB081805B968304BA3FB0123DA08BD
:100DD00013469B0013445B00CA1A130403437A6949
:100DE00013437B617B68294AA2FB0323DB081803BA
:100DF0007968264BA3FB0123DA0813469B001344B2
:100E00005B00CA1A130203437A6913437B613B6890
:100E10001E4AA2FB0323DB08180139681B4BA3FB06
:100E20000123DA0813469B0013445B00CA1A40EA08
:100E300002037A6913437B61FB681B6843F001027C
:100E4000FB681A6000BFFB689B6903F00103002B7D
:100E5000F9D0FB680122DA61FB687A699A60FB6865
:100E60001B6823F00102FB681A60FB68DB6943F032
:100E70000402FB68DA61FB68DB6A03F001031846D1
:100E80001C37BD465DF8047B704700BFCDCCCCCC91
:100E900080B487B000AFF860B9607A603B6000232F
:100EA0007B61BB68002B24D0FB685B6803F0010307
:100EB000002B09D07B680C2B06D97B680C3B7B6030
:100EC0007B6943F480037B617B682E4AA2FB03238A
:100ED000DB08180579682B4BA3FB0123DA081346BE
:100EE0009B0013445B00CA1A130403437A6913433B
:100EF0007B613B68002B14D03B6A224AA2FB032390
:100F0000DB081803396A1F4BA3FB0123DA081346D9
:100F10009B0013445B00CA1A130203437A6913430C
:100F20007B617B6A002B14D0BB6A164AA2FB0323A9
:100F3000DB081801B96A134BA3FB0123DA08134637
:100F40009B0013445B00CA1A40EA02037A69134308
:100F50007B61FB681A690C4B1340FA681361FB68EC
:100F60007A691A61FB681A69084B1343FA681361BE
:100F7000FB68DB6A03F0040318461C37BD465DF8C6
:100F8000047B7047CDCCCCCC7F7F7FFF80808000FE
:100F900080B487B000AFF860B9607A603B6000232E
:100FA0007B61BB68464AA2FB03239B091801BB680F
:100FB000444AA2FB03235909434BA3FB0123DA084C
:100FC00013469B0013445B00CA1A40EA02037A6985
:100FD00013437B61BB683C4AA2FB0323D9083A4B0D
:100FE000A3FB0123DA0813469B0013445B00CA1AD3
:100FF0001003B968344BA3FB0123DA0813469B00A6
:1010000013445B00CA1A130203437A6913437B61DA
:101010007B682D4AA2FB0323DB08180579682A4B5D
:10102000A3FB0123DA0813469B0013445B00CA1A92
:10103000130403437A6913437B613B6A5B057A6956
:1010400013437B613B68204AA2FB0323DB0818079C
:1010500039681D4BA3FB0123DA0813469B00134498
:101060005B00CA1A130603437A6913437B61FB686A
:101070001B6843F00202FB681A6000BFFB689B69B3
:1010800003F00103002BF9D0FB680122DA61FB6851
:101090007A69DA60FB681B6823F00202FB681A6059
:1010A000FB68DB6943F00402FB68DA61FB68DB6A1A
:1010B00003F0020318461C37BD465DF8047B7047F9
:1010C000D34D62101F85EB51CDCCCCCC80B483B016
:1010D00000AF78607B689B6918460C37BD465DF8A9
:1010E000047B704780B483B000AF786039607B6860
:1010F0003A68DA6100BF0C37BD465DF8047B704783
:1011000080B487B000AFF860B9607A60FA68BB68F5
:101110009B0113447B617B6902221A607B694FF05B
:10112000FF329A627B691B6A7B697A685A6000BFEA
:101130001C37BD465DF8047B704700BF80B483B0A8
:1011400000AF786039607A683B689B0113440522E0
:101150001A6000BF0C37BD465DF8047B704700BFC6
:1011600080B483B000AF786039607A683B689B01D7
:10117000134402221A6000BF0C37BD465DF8047BA1
:10118000704700BF80B485B000AFF860B9607A6086
:10119000FA68BB689B0113441C337A681A6000BF6D
:1011A0001437BD465DF8047B704700BF80B487B03C
:1011B00000AFF860B9607A60FA68BB689B011344BD
:1011C0007B617B697A685A6200BF1C37BD465DF857
:1011D000047B704780B485B000AF786039607A686E
:1011E0003B689B011344FB60FB681B6A184614377D
:1011F000BD465DF8047B704780B48DB000AFF860E9
:10120000B9607A603B6002233B6108237B61202345
:10121000BB618023FB61BB6BDB0B3B620023FB628A
:101220001AE0FB6A9B0007F13002134453F8203C9C
:10123000BA68B2FBF3F3BB62BB6A1B0C7B62FA6851
:10124000BB6A9A4201D9002323E0FA687B6A9A427A
:1012500006D2FB6A0133FB62FB6A042BE1D900E092
:1012600000BFFB6A042B01D9002312E07B68002B2E
:1012700008D0FB6A9B0007F13002134453F8202C7E
:101280007B681A603B68002B02D03B68FA6A1A60E0
:10129000012318463437BD465DF8047B704700BF14
:1012A00080B483B000AFEFF310837B607B68002BCA
:1012B0000CBF01230023DBB23B6072B6BFF35F8F2C
:1012C000044B00221A703B6818460C37BD465DF887
:1012D000047B70470000402080B483B000AF78608A
:1012E0007B68002B14BF01230023DBB218460C37A8
:1012F000BD465DF8047B704780B582B000AF786072
:101300007868074B98470346002B05D0054B012210
:101310001A70BFF35F8F62B600BF0837BD4680BD4D
:10132000D91240000000402080B584B000AF1E4BB1
:10133000FB601E4BBB60FA68BB689A420CD007E0AA
:10134000BB681A1DBA60FA68111DF96012681A604C
:10135000BB68174A9342F3D3164BBB6004E0BB68EB
:101360001A1DBA6000221A60BB68134A9342F6D372
:10137000124BFB60124AFB6823F07F039360114B12
:1013800098477860104A104B1B6843F47003136051
:10139000BFF34F8FBFF36F8F78680C4B98470C4BA0
:1013A00098470C4B9847FEE7941C400000004020F3
:1013B0003804402038044020D4044020000040007D
:1013C00000ED00E0A112400088ED00E0F9124000BD
:1013D0002D1B40009D1A400080B400AFFEE700BF07
:1013E00080B400AF524B1B6B03F00303012B14D0EE
:1013F000012B02D3022B38D07AE04E4B5B6903F00D
:101400008003002B04D04C4B4FF400421A606FE075
:10141000494B4FF4FA421A606AE0454B1B6A03F0ED
:101420008073002B03D0444B444A1A6060E0424B67
:10143000434A1A603E4B1B6A03F07003102B04D022
:10144000202B08D0002B0ED00EE03B4B1B685B001E
:10145000394A136008E0384B1A6813465B0013449E
:10146000354A136000E000BF42E0314B1B6A03F0D5
:101470008073002B03D0304B304A1A601CE02E4B97
:101480002F4A1A602A4B1B6A03F07003102B04D0FA
:10149000202B08D0002B0ED00EE0274B1B685B00E2
:1014A000254A136008E0244B1A6813465B00134476
:1014B000214A136000E000BF1D4B1B6B03F00303C8
:1014C000022B14D11A4B9A6A1E4B13401B0C01338A
:1014D000194A126802FB03F3174A1360144B9B6A04
:1014E000DBB2154A1268B2FBF3F3134A136000BF74
:1014F0000F4B1B6B03F07003702B08D10E4B1B6856
:10150000114AA2FB03235B080B4A13600AE0084B55
:101510001B6B03F070031B09074A126822FA03F3DE
:10152000054A136000BFBD465DF8047B704700BFED
:1015300000060E4010180E4004004020001BB700AB
:1015400000093D000000FF07ABAAAAAA80B483B03F
:1015500000AF78607B68194A934204D8184B4FF06B
:1015600080621A6023E07B68164A934203D8144BCA
:10157000154A1A601BE07B68144A934203D8104B4B
:10158000134A1A6013E07B68124A934203D80C4B4B
:10159000114A1A600BE07B68104A934204D8084B4A
:1015A0004FF004221A6002E0054B0D4A1A6000BF9A
:1015B0000C37BD465DF8047B704700BFFF2C31013E
:1015C000000C0E40FF59620200010004FF869303E5
:1015D00000020004FFB3C40400030004FFE0F505AB
:1015E0000005000480B483B000AF0346FB710949D5
:1015F00097F907305B09FA7902F01F02012000FA1F
:1016000002F241F8232000BF0C37BD465DF8047B91
:10161000704700BF00E100E080B483B000AF034634
:10162000FB71094997F907305B09FA7902F01F024B
:10163000012000FA02F2203341F8232000BF0C37CA
:10164000BD465DF8047B704700E100E080B483B0E4
:1016500000AF0346FB71094997F907305B09FA7936
:1016600002F01F02012000FA02F2603341F8232049
:1016700000BF0C37BD465DF8047B704700E100E019
:1016800080B483B000AF03463960FB7197F907302F
:10169000002B0BDA0D49FB7903F00F03043B3A688A
:1016A000D2B25201D2B20B441A7609E0084997F936
:1016B00007303A68D2B25201D2B20B4483F8002309
:1016C00000BF0C37BD465DF8047B704700ED00E0BD
:1016D00000E100E080B483B000AF78607B68072B46
:1016E00025D801A252F823F0091740000F17400037
:1016F000151740001B1740001F174000231740001C
:10170000271740002B1740004FF4FA4310E04FF426
:1017100000430DE04FF400430AE0084B08E0084B9B
:1017200006E0084B04E0074B02E0064B00E0002314
:1017300018460C37BD465DF8047B704700093D0034
:1017400000127A00001BB70080B500AF0620054BE1
:101750009847024613469B0013449A0013441846C8
:1017600080BD00BFD516400080B500AF024B984742
:101770000346184680BD00BF4917400080B483B0BF
:1017800000AF7860396000BF0C37BD465DF8047B60
:10179000704700BF80B582B000AF01210748084BF9
:1017A000984703467B607B684FF480710548064B81
:1017B000984700BF0837BD4680BD00BF00C000404D
:1017C000D511400000120E40A118400090B587B01E
:1017D00004AF2748274B984778607B6803F00403E1
:1017E000002B04D004212248234B98473CE07B681F
:1017F00003F00203002B37D0204B1B78DBB2002B09
:1018000008D0012319461E481E4B98471B4B002247
:101810001A7007E00123194619481B4B9847174BCC
:1018200001221A7002211248134B9847174B19686E
:10183000174B1A68174B1B680D48174CA047134BE2
:101840001B681968124B1B681B680133114A126828
:1018500012680A32029201220192009301230A4681
:10186000012103480D4CA04700BF0C37BD4690BD79
:1018700060180E40CD104000E510400008004020E8
:1018800000C00040611140003D114000D0044020E4
:10189000C8044020CC044020C50C4000910E4000FC
:1018A00080B582B000AF7860396039687868094BDC
:1018B00098470346002B04D039687868064B984750
:1018C00003E039687868054B984700BF0837BD4684
:1018D00080BD00BF61064000610540004505400035
:1018E00090B583B002AF0A20104B984709224FF4FD
:1018F00000610F480F4B98474FF400610C480E4BA6
:1019000098470E4B009350234FF400620A21084879
:101910000B4CA0470A200B4B984701210A200A4B89
:10192000984700BF0437BD4690BD00BFED0B400097
:10193000000E0E407D054000F50640007D1740007A
:1019400011084000E51540008116400090B585B0B3
:1019500002AF78600C20074B98477A680023009309
:1019600000234FF480710448044CA04700BF0C379B
:10197000BD4690BDED0B400000120E40FD0540003D
:1019800090B587B002AF1B4B9847F86018201A4BF0
:101990009847391D07F10802FB6800930B46F96868
:1019A0000420164CA047012319467B6843F480436A
:1019B0001A461348134B984701231946BB68FA6827
:1019C000B2FBF3F39B081A460D480F4B98471820BB
:1019D0000E4B984701231022194609480C4B984793
:1019E0000123194606480B4B984700BF1437BD46E4
:1019F00090BD00BF69174000ED0B4000F911400099
:101A000000C000400111400085114000E515400074
:101A1000AD1140003D11400090B583B002AF0220EF
:101A2000144B984700211448144B98470D230093FA
:101A30001B23032240F2E1710F48114CA047002301
:101A4000052209210C480F4CA04702200E4B984755
:101A500002200E4B9847002102200D4B9847022090
:101A60000C4B9847022104480B4B984700BF0437A2
:101A7000BD4690BDED0B400060180E40710C40005B
:101A8000910F4000890D4000191640004D1640008E
:101A900081164000E5154000A90C400090B585B0C6
:101AA00004AF164B9847164B4FF400425A60002083
:101AB000144B9847144B9847144B9847144B98472E
:101AC000144B1968144B1A68144B1B681448154CB6
:101AD000A047104B1B6819680F4B1B681B680F4A07
:101AE000126812680A3202920122019200930123C5
:101AF0000A4601210A480C4CA047FEE79D0440001D
:101B000050180E404D194000E11840008119400066
:101B1000191A4000D0044020C8044020CC044020C2
:101B200060180E40C50C4000910E400070B50F4E7D
:101B30000F4D761BB61018BF002405D0013455F8A0
:101B4000043B9847A642F9D10A4E0B4D761B00F094
:101B50008FF8B61018BF002406D0013455F8043BA6
:101B60009847A642F9D170BD70BD00BF7C1C4000F3
:101B70007C1C4000841C40007C1C4000024B13B1C4
:101B8000024800F005B87047000000009D1B4000AF
:101B9000002301461A46184600F014B838B5074D20
:101BA000074C2C1BA41005D0013C55F8043D984768
:101BB000002CF9D1BDE8384000F064B8941C400016
:101BC000901C40002DE9F047254C2568D5F8484188
:101BD0000646884692469946C4B360681F2817DCBB
:101BE000431C76B104EB80050122C5F888A0D4F827
:101BF000881182401143022EC4F88811C5F808915B
:101C00001ED00230636044F820800020BDE8F087D9
:101C1000144B03B34FF4C870AFF300800446D0B147
:101C2000D5F84831002780E88800C5F84841384693
:101C30000123C4F88871C4F88C71002EE1D0D1E77B
:101C4000D4F88C110A43C4F88C21DAE705F5A674A0
:101C5000C5F84841C1E74FF0FF30BDE8F08700BF4D
:101C60006C1C4000000000004300000010004020F9
:101C7000F8B500BFF8BC08BC9E4670477D1B40000D
:101C800065014000F8B500BFF8BC08BC9E4670472F
:041C900041014000CE
:101C94000100000000093D000100000000000000F8
:101CA40000000000FC02402064034020CC034020DC
:101CB4000000000000000000000000000000000020
:101CC4000000000000000000000000000000000010
:101CD40000000000681C400000000000000000003C
:101CE40000000000000000000000000000000000F0
:101CF40000000000000000000000000000000000E0
:101D040000000000000000000000000000000000CF
:101D140000000000000000000000000000000000BF
:101D240000000000000000000000000000000000AF
:101D3400000000000000000000000000000000009F
:101D4400000000000000000001000000000000008E
:101D54000E33CDAB34126DE6ECDE05000B00000053
:101D6400000000000000000000000000000000006F
:101D7400000000000000000000000000000000005F
:101D8400000000000000000000000000000000004F
:101D9400000000000000000000000000000000003F
:04000005004013297B
:00000001FF
